:040000008031212802
:100008007E1480310C2842011908F1007108FB00A8
:100018004E018F1A1028112807287B08833169237D
:100028008031013A031D19281A281F280130F100D0
:1000380071084001B7007E10090080312328FB01B8
:100048004001B7017E10400180312A2883313323D3
:10005800803168308031A620803140013703031D8C
:100068003628372831283530AA002A08F5003330D9
:100078008131D121803140013408803AAA00803092
:100088002A02031D492801303302031C4C284D283D
:1000980051284001B101B10A53284001B101360885
:1000A800803AAA0080302A02031D5C2801303502FC
:1000B800031C5F28602864284001B201B20A662840
:1000C8004001B2010030F200F3008231C5228031D4
:1000D8004001AA002A08AD0000308D180130F20056
:1000E80000300D190130F3003108AA002A08F40085
:1000F8003208AB002B08F5000D08013982311522B2
:1001080080314001AC002C08AE003408A60033084A
:10011800A50082319F2280314001AA002A08AF0041
:100128003608A6003508A5008231792280314001C1
:10013800AA002A08B0002D3082315222803131289D
:1001480080312128F5007535F3007308FA00053071
:10015800F4000F30F300F130890BB028F30BB0280E
:10016800F40BB028000083318E2380317A08833164
:100178007323803119308331732380310730833101
:100188007323803183318823803183318E238031FA
:100198007A088331732380316B3083317323803144
:1001A8000130833173238031833188238031833157
:1001B8008E2380317A088331732380311A3083315A
:1001C8007323803100308331732380318331882356
:1001D800803183318E2380317A08833173238031D3
:1001E8001B30833173238031003083317323803196
:1001F8000030833173238031833188238031833108
:100208008E2380317A0883317323803138308331EB
:100218007323803100308331732380318331882305
:10022800803108004001A201F71F1B291C2923293E
:10023800F609F709F60A0319F70AA201A20AF91F33
:10024800262927293029F809F909F80A0319F90A8A
:100258000130A0002008A206A301A40176087704B3
:100268000319372938296729A101A10A442901302E
:10027800F635F70D890B3C290130A0002008A107AD
:10028800F71F472948293B290130A335A40D890BBD
:10029800492977087902031D532976087802031C37
:1002A800562957295C297608F8027708F93B231460
:1002B8000130F736F60C890B5D290130A102031DC8
:1002C800662967294829220803196B296C2971298D
:1002D800A309A409A30A0319A40A2408F7002308F8
:1002E800F60008004001960197011830980099011E
:1002F8009A0130309100F0309200BF3093009401A1
:100308000730950030307E01B800F030C300673008
:10031800CE00D9010730E400B901C401CF01DA01E8
:10032800E501BA01C501D001DB01E601FF30BB00E0
:10033800FF30C600FF30D100FF30DC000730E70097
:10034800FF30BC00FF30C700FF30D200FF30DD00B7
:100358000F30E80017307D01CB00103092000D30CF
:10036800930010307E01A60013307D01C5001430C3
:100378007E01A30014307D01C60015307E01A40063
:10038800BD01BE01BF01C801C901CA01D301D40121
:10039800D501E901EA01EB0108004001A20083311F
:1003A8008E2381317A088331732381313B30833145
:1003B8007323813183318E2381317A08013E833161
:1003C8007323813100308231FA228131F6007608B8
:1003D8004001A10000308231FA228131F60076080E
:1003E8004001A00000308231FA228131F6007608FF
:1003F8004001A30001308231FA2281318331882300
:10040800813140012208860087012008C03F210869
:10041800C13F7508860087012308C03F2308C13FF4
:100428000800F700F801770803191B2A1C2A222A5A
:100438007808203EF6007608F800372A7208031973
:10044800262A272A2D2A7808403EF6007608F80042
:10045800372A73080319312A322A372A7808803E46
:10046800F6007608F8007403031D3B2A3C2A412A4B
:100478007808103EF6007608F8007503031D452A33
:10048800462A4B2A7808083EF6007608F8007808CD
:10049800013EF6007608F80078080800F400F50137
:1004A800F601740886008701010883315F238231D1
:1004B8000130F3007308F4073430F300F230890B8D
:1004C800632AF30B632A0130F5070030F63D7608FE
:1004D800803AF30080307302031D742A04307502D9
:1004E800031C772A782A552A08000030F6000230C3
:1004F800F70040012608F3002508F2008231E022C7
:1005080082317308F9007208F800813116218231AE
:1005180076084001A7000130A735FF3E031D902A49
:100528002735A8002808A9002908033EA70027089E
:10053800A900290808000030F6000230F700400141
:100548002608F3002508F2008231E0228231730880
:10055800F9007208F80081311621823176084001CD
:10056800A7000130A735FF3E031DB62A2735A8008E
:100578002808A9002908023EA7002708A900290879
:1005880008007308F5007208F4000A30F536F40C18
:10059800890BCA2A7408F6000130F635FF3E031DA0
:1005A800D12A7635F7007708F8007808BC39F400C6
:1005B8007408F800780808007308803AF40080305E
:1005C8007402031DE92A013072020318EC2AED2A8D
:1005D800F92A7209F4007309F500F40A0319F50AF7
:1005E8007408F2007508F300F92A0800F3004301C3
:1005F800911583317B23823143010C08F200720884
:10060800F4000F10730C031C9112031891161116A5
:1006180083317B23823174080800413458343A34DA
:1006280020342534643409342034413459343A347C
:100638002534643420340D340A34003410307E01FB
:10064800A600193042019B009C019F111E111F1228
:100658009D171E121D169E164E019916080083310D
:1006680052238331813176218331833122238331AF
:1006780083314323833183318223833108008030DF
:1006880043018F0008309000910192019F308D0046
:10069800400193151316430190160800613051016B
:1006A8008D0070308E008F0140309100063093002D
:1006B800900192010800F2004E010F1E642B652B79
:1006C800602B720842019A000800F000700A031DAE
:1006D8006E2B6F2B712B0130722B00300800F2004B
:1006E800720843018C0083317B23833108004E015B
:1006F8000F1C7F2B802B7B2B0F1008004E0119122B
:1007080099168B170B1708004301111583317B23AA
:10071800833108004301111483317B23833108009E
:020000040001F9
:08000000FF3FFF3FFF3FFF3F00
:0A000E008C3FFF3F9F3FFF3FFF3F85
:00000001FF
