:040000008031212802
:100008007E1480310C2842011908F1007108FB00A8
:100018004E018F1A1028112807287B088331732373
:100028008031013A031D19281A281F280130F100D0
:1000380071084001B7007E10090080312328FB01B8
:100048004001B7017E10400180312A2883313D23C9
:10005800803168308031AF20803140013703031D83
:100068003628372831283530AA002A08F5003330D9
:100078008131DB21803140013408803AAA00803088
:100088002A02031D492801303302031C4C284D283D
:1000980051284001B101B10A53284001B101360885
:1000A800803AAA0080302A02031D5C2801303502FC
:1000B800031C5F28602864284001B201B20A662840
:1000C8004001B2010030F200F3008231CF228031CA
:1000D8004001AA002A08AD0003108D1C031400304B
:1000E80003180130F20003100D1D0314003003182B
:1000F8000130F3003108AA002A08F4003208AB00E6
:100108002B08F50003100D1C03140030093D823143
:100118001F2280314001AC002C08AE003408A60034
:100128003308A5008231A92280314001AA002A089B
:10013800AF003608A6003508A50082318322803139
:100148004001AA002A08B0002D3082315C2280319B
:10015800312880312128F5007535F3007308FA003D
:100168000530F4000F30F300F130890BB928F30B98
:10017800B928F40BB92800008331982380317A0814
:1001880083317D238031193083317D2380310730DD
:1001980083317D23803183319223803183319823C9
:1001A80080317A0883317D2380316B3083317D2320
:1001B8008031013083317D23803183319223803136
:1001C8008331982380317A0883317D2380311A3036
:1001D80083317D238031003083317D238031833129
:1001E800922380318331982380317A0883317D23AB
:1001F80080311B3083317D238031003083317D2372
:100208008031003083317D238031833192238031E6
:100218008331982380317A0883317D2380313830C7
:1002280083317D238031003083317D2380318331D8
:100238009223803108004001A201F71F24292529B3
:100248002C29F609F709F60A0319F70AA201A20AE6
:10025800F91F2F2930293929F809F909F80A03194A
:10026800F90A0130A0002008A206A301A40176081B
:1002780077040319402941297029A101A10A4D29B0
:100288000130F635F70D890B45290130A00020080B
:10029800A107F71F5029512944290130A335A40D7E
:1002A800890B522977087902031D5C2976087802A0
:1002B800031C5F29602965297608F8027708F93B4D
:1002C80023140130F736F60C890B66290130A10298
:1002D800031D6F29702951292208031974297529CA
:1002E8007A29A309A409A30A0319A40A2408F70070
:1002F8002308F6000800400196019701183098007D
:1003080099019A0137309100FF309200BF30930075
:1003180094010730950030307E01B800F030C300FA
:100328006730CE00D9010730E400B9010730C400B6
:10033800CF01DA01E501BA01C501D001DB01E6010F
:10034800FF30BB00FF30C600FF30D100FF30DC00BB
:100358000730E700FF30BC00FF30C700FF30D20095
:10036800FF30DD000F30E80017307D01CB00103082
:1003780092000D30930010307E01A60013307D01ED
:10038800C50014307E01A30014307D01C60015306D
:100398007E01A400BD01BE01BF01C801C901CA0197
:1003A800D301D401D501E901EA01EB0108004001BC
:1003B800A2008331982381317A0883317D238131EA
:1003C8003B3083317D2381318331982381317A0811
:1003D800013E83317D238131003083310423813113
:1003E800F60076084001A1000030833104238131F2
:1003F800F60076084001A0000030833104238131E3
:10040800F60076084001A3000130833104238131CE
:100418008331922381314001220886008701200818
:10042800C03F2108C13F7508860087012308C03FE7
:100438002308C13F0800F700F80177080319252AA7
:10044800262A2C2A7808203EF6007608F800412A49
:1004580072080319302A312A372A7808403EF600F4
:100468007608F800412A730803193B2A3C2A412AD6
:100478007808803EF6007608F8007403031D452AC4
:10048800462A4B2A7808103EF6007608F8007503CD
:10049800031D4F2A502A552A7808083EF600760888
:1004A800F8007808013EF6007608F8007808080099
:1004B800F400F501F601740886008701010883310C
:1004C800692382310130F3007308F4073430F300F4
:1004D800F230890B6D2AF30B6D2A0130F5070030D5
:1004E800F63D7608803AF30080307302031D7E2AB9
:1004F80004307502031C812A822A5F2A0800003012
:10050800F6000230F70040012608F3002508F20043
:100518008231EA2282317308F9007208F8008131C9
:100528001F21823176084001A7000130A735FF3E20
:10053800031D9A2A2735A8002808A9002908033E80
:10054800A7002708A900290808000030F600023093
:10055800F70040012608F3002508F2008231EA225C
:1005680082317308F9007208F80081311F21823145
:1005780076084001A7000130A735FF3E031DC02AB9
:100588002735A8002808A9002908023EA70027083F
:10059800A900290808007308F5007208F4000A3059
:1005A800F536F40C890BD42A7408F6000130F635B8
:1005B800FF3E031DDB2A7635F7007708F800780838
:1005C800BC39F4007408F800780808007308803A09
:1005D800F40080307402031DF32A013072020318FC
:1005E800F62AF72A032B7209F4007309F500F40AB6
:1005F8000319F50A7408F2007508F300032B0800C4
:10060800F3004301911583318523833143010C089D
:10061800F2007208F4000F10730C031C91120318F7
:1006280091161116833185238331740808004134EB
:1006380058343A342034253464340934203441346D
:1006480059343A342534643420340D340A340034AF
:1006580010307E01A600193042019B009C019F11B9
:100668001E111F129D171E121D169E164E01991659
:10067800080083315C23833181317F2183318331C9
:100688002C23833183314D23833183318C23833170
:100698000800803043018F000830900091019201DA
:1006A8009F308D00400193151316430190160800E2
:1006B800613051018D0070308E008F014030910003
:1006C80006309300900192010800F2004E010F1EBF
:1006D8006E2B6F2B6A2B720842019A000800F000FB
:1006E800700A031D782B792B7B2B01307C2B003073
:1006F8000800F200720843018C008331852383319E
:1007080008004E010F1C892B8A2B852B0F1008001F
:100718004E01191299168B170B1708004301111572
:1007280083318523833108004301111483318523E4
:040738008331080001
:020000040001F9
:08000000FF3FFF3FFF3FFF3F00
:0A000E008C3FFF3F9F3FFF3FFF3F85
:00000001FF
