:040000008031232800
:100008007E1480310D2842011908F1007108410160
:10001800A7004E018F1A1128122807284101270826
:100028008F312F278031013A031D1B281C282128D6
:100038000130F10071084101A6007E1009008031ED
:100048002528FA01FB01A030840000308500283003
:100058008F31102780317E1040018431D92C400126
:10006800C5003A08CE003B08CF003C08D0003D0848
:10007800D1003E08D2003F08D3004008D400410810
:10008800D5004E30860000308700473FC200C21BB3
:100098004E2850280130512800304001C300C401C7
:1000A8004308CC004408CD004C084D0403195D28D2
:1000B8005E287C28CE09CF09D009D109D209D309F5
:1000C800D409D509CE0A031D7C28CF0A031D7C2834
:1000D800D00A031D7C28D10A031D7C28D20A031DDF
:1000E8007C28D30A031D7C28D40A031D7C28D50A42
:1000F8004101A51B802881288528FD30FA05FF309D
:10010800FB052508803A4001C20080304202031DE9
:1001180090280130410124020318932894289A2832
:1001280001304001C8000030C900A228410125085B
:100138004001C900410124084001C80041012308C9
:100148004001CB00410122084001CA004C084D047F
:10015800031DAF28B028B4287A1DB328B428B828BE
:10016800FF30CA07FF30CB3D1F30D6000030D70024
:100178004101C7012729FF304001D607FF30D73D8D
:100188000A30A000A101A201A301A401A501A601B2
:10019800A7014E08A8004F08A9005008AA00510856
:1001A800AB005208AC005308AD005408AE00550827
:1001B800AF0082319E22803140012108F6002008DC
:1001C800F5008731E62780317508303E4001C200CE
:1001D8005608A83E8600870142088100FF30C807FC
:1001E800FF30C93DFF30CA07FF30CB3D0A30A000C1
:1001F800A101A201A301A401A501A601A7014E081E
:10020800A8004F08A9005008AA005108AB005208DE
:10021800AC005308AD005408AE005508AF0081315A
:100228009A21803140012008CE002108CF00220801
:10023800D0002308D1002408D2002508D3002608BE
:10024800D4002708D50040015708803AC200803002
:100258004202031D312901305602031C3429352975
:10026800612940014E084F045004510452045304BC
:1002780054045504031D41294229BF284908803ADE
:10028800C20080304202031D4B2901304802031886
:100298004E294F29BF2840014B08803AC2008030C0
:1002A8004202031D592901304A02031C5C295D29B9
:1002B8006129FA1860296129BF2840014C084D04BA
:1002C800031D672968296C297A1D6B296C298729E0
:1002D800FF30D607FF30D73D4C084D04031D752964
:1002E80076297B292B30C6000030C7007F292D30A6
:1002F800C6000030C7004608C2005608A83E86005F
:100308008701420881005608A83EC2004208A90099
:100318004B08AB004A08AA004508863105268031FB
:1003280040012A08BB002908BA0008004001B101B1
:100338002030860000308700473FF200F21FA529D1
:10034800A629C8294001A009A109A209A309A4094D
:10035800A509A609A709A00A031DC529A10A031D05
:10036800C529A20A031DC529A30A031DC529A40A74
:10037800031DC529A50A031DC529A60A031DC529EC
:10038800A70A4001B101B10A283086000030870071
:10039800473FF200F21FD129D229F6294001A809C6
:1003A800A909AA09AB09AC09AD09AE09AF09A80AA0
:1003B800031DF129A90A031DF129AA0A031DF12920
:1003C800AB0A031DF129AC0A031DF129AD0A031D6F
:1003D800F129AE0A031DF129AF0A0130F2007208B3
:1003E8004001B10632308600003087000830F20044
:1003F80000301E00F20BFD294001200821042204D0
:100408002304240425042604270403190C2A0D2A8E
:10041800692AB001B00A1C2AA035A10DA20DA30DAE
:10042800A40DA50DA60DA70D0130F2007208B007A6
:10043800A71F1F2A202A102AB235B30DB40DB50DF7
:10044800B60DB70DB80DB90D27082F02031D462AA2
:1004580026082E02031D462A25082D02031D462ABA
:1004680024082C02031D462A23082B02031D462AB2
:1004780022082A02031D462A21082902031D462AAA
:1004880020082802031C492A4A2A5B2A2008A802B5
:100498002108A93B2208AA3B2308AB3B2408AC3B14
:1004A8002508AD3B2608AE3B2708AF3B3214A736DC
:1004B800A60CA50CA40CA30CA20CA10CA00C01303A
:1004C800B002031D682A692A202A310803196D2AF7
:1004D8006E2A8C2AB209B309B409B509B609B70955
:1004E800B809B909B20A031D8C2AB30A031D8C2A5C
:1004F800B40A031D8C2AB50A031D8C2AB60A031DEB
:100508008C2AB70A031D8C2AB80A031D8C2AB90A3B
:1005180040013208A0003308A1003408A2003508C1
:10052800A3003608A4003708A5003808A600390833
:10053800A7000800F4012830860000308700473FF4
:10054800F200F21FA82AA92ACA2A4001A809A90963
:10055800AA09AB09AC09AD09AE09AF09A80A031D80
:10056800C82AA90A031DC82AAA0A031DC82AAB0A51
:10057800031DC82AAC0A031DC82AAD0A031DC82AD0
:10058800AE0A031DC82AAF0AF401F40A2030860017
:1005980000308700473FF200F21FD32AD42AF32AFB
:1005A8004001A009A109A209A309A409A509A6094E
:1005B800A709A00A031DF32AA10A031DF32AA20A08
:1005C800031DF32AA30A031DF32AA40A031DF32A11
:1005D800A50A031DF32AA60A031DF32AA70A400148
:1005E80020082104220423042404250426042704C3
:1005F8000319FF2A002B532BF301F30A0F2BA03505
:10060800A10DA20DA30DA40DA50DA60DA70D0130DA
:10061800F2007208F307A71F122B132B032B2708CE
:100628002F02031D312B26082E02031D312B25080E
:100638002D02031D312B24082C02031D312B230806
:100648002B02031D312B22082A02031D312B2108FE
:100658002902031D312B20082802031C342B352BBB
:10066800452B2008A8022108A93B2208AA3B2308F9
:10067800AB3B2408AC3B2508AD3B2608AE3B27081E
:10068800AF3BA736A60CA50CA40CA30CA20CA10C7E
:10069800A00C0130F302031D522B532B132B7408AB
:1006A8000319572B582B762BA809A909AA09AB09B6
:1006B800AC09AD09AE09AF09A80A031D762BA90A32
:1006C800031D762BAA0A031D762BAB0A031D762B76
:1006D800AC0A031D762BAD0A031D762BAE0A031D4B
:1006E800762BAF0A40012808A0002908A1002A0893
:1006F800A2002B08A3002C08A4002D08A5002E0892
:10070800A6002F08A70008004001E7005808860047
:100718008701403FDA00413FDB005A0884005B084C
:1007280085001200253A031D9A2B9B2B3F2C580855
:10073800860087010130810741310318810A410190
:10074800A201A301FA01FB01FF30A400FF30A500BC
:100758004001580886008701403FDA00413FDB002E
:100768005A0884005B0885001200643A0319BD2BFF
:10077800BE2BCF2B580886008701403FDA00413F47
:10078800DB005A0884005B0885001200693A031DE3
:10079800CE2BCF2B0A2C5808860087010130810701
:1007A80041310318810A590886008701010884002D
:1007B800850102308107003FDA00013FDB005A085B
:1007C800DF005B08E000890D893B8909E100E20050
:1007D800E300E400E500E6005F08BA006008BB003B
:1007E8006108BC006208BD006308BE006408BF0061
:1007F8006508C0006608C10067088031332083316E
:1008080040013B08D9003A08D800622C58088600F5
:100818008701403FDA00413FDB005A0884005B084B
:1008280085001200253A031D1A2C1B2C342C58085D
:10083800860087010130810741310318810A25307C
:10084800F3000030F4006708DA005A08F500863132
:100858005B26833101304001D8000030D900622C7A
:100868005808860087010130810741310318810A41
:10087800D801D901622C580886008701403FDA0068
:10088800413FDB005A0884005B0885000008DC0053
:10089800DD015C08F3005D08F4006708DE005E080F
:1008A800F50086315B2683314001580886008701B0
:1008B8000130810741310318810A2E2C0800F50008
:1008C8007535F30073084101E0000530F4000F307E
:1008D800F300F130890B6E2CF30B6E2CF40B6E2C9D
:1008E80000008E31FE268431410160088F311D27BA
:1008F800843119308F311D27843107308F311D27FE
:1009080084318F31042784318E31FE2684314101B0
:1009180060088F311D2784316B308F311D2784315A
:1009280001308F311D2784318F31042784318E3176
:10093800FE268431410160088F311D2784311A3029
:100948008F311D27843100308F311D2784318F313D
:10095800042784318E31FE268431410160088F31AD
:100968001D2784311B308F311D27843100308F3192
:100978001D27843100308F311D2784318F310427A2
:1009880084318E31FE268431410160088F311D2764
:10099800843138308F311D27843100308F311D2745
:1009A80084318F310427843108008F3156278431F0
:1009B800683084316324843101304101D300530805
:1009C800A6002603031DE92CEA2CE02CDE30D30018
:1009D8005308F500DC308631AC26843141015C08CF
:1009E800D3005308DA005E08D3005308DB00103048
:1009F800F2002730F3008F31BE2784314101D30044
:100A08005308D600F201F3015A08D3005308F40042
:100A18005B08D4005408F50001308631F226843191
:100A28004101D5005508D7005D084001B9004101D2
:100A38005C084001B8008F31D92784314101D300C7
:100A48005308D8005F084001B90041015E08400121
:100A5800B8008731BF2784314101D3005308D9003A
:100A6800D63087312F2784314101A6011530410145
:100A7800D4004B30D300BE30890B402DD30B402D12
:100A8800D40B402D0000E02C803123284001B50113
:100A9800B11F4F2D502D572DB009B109B00A0319B8
:100AA800B10AB501B50AB31F5A2D5B2D642DB209E1
:100AB800B309B20A0319B30A0130F9007908B50677
:100AC800B601B7013008310403196B2D6C2D9B2D2D
:100AD800B401B40A782D0130B035B10D890B702DF1
:100AE8000130F9007908B407B11F7B2D7C2D6F2DDB
:100AF8000130B635B70D890B7D2D31083302031D42
:100B0800872D30083202031C8A2D8B2D902D30083A
:100B1800B2023108B33B36140130B136B00C890B40
:100B2800912D0130B402031D9A2D9B2D7C2D350883
:100B380003199F2DA02DA52DB609B709B60A0319CB
:100B4800B70A3708B1003608B0000800400196011E
:100B580097011830980099019A0130309100F030CF
:100B68009200BF30930094010730950030307E0129
:100B7800B800F030C3006730CE00D9010730E40078
:100B8800B901C401CF01DA01E501BA01C501D001FB
:100B9800DB01E601FF30BB00FF30C600FF30D100AB
:100BA800FF30DC000730E700FF30BC00FF30C70033
:100BB800FF30D200FF30DD000F30E80017307D0134
:100BC800CB00103092000D30930010307E01A6004B
:100BD80013307D01C50014307E01A30014307D015F
:100BE800C60015307E01A400BD01BE01BF01C801C9
:100BF800C901CA01D301D401D501E901EA01EB0118
:100C080008004001B1007A1C0A2E0B2E132E310861
:100C1800AC002C08F6002908873197278631400157
:100C2800AB1B172E182E1D2E2B08B0002A08AF005C
:100C38001F2EAF01B001AD01AE01332E2030F300FD
:100C48000030F40040013108AC002C08F500863172
:100C58005B26863101304001AD070030AE3D2E08DD
:100C6800803AAC003008803A2C02031D3D2E2F0834
:100C78002D02031C402E412E222E7A18442E452E7A
:100C88004E2E40013108AC002C08F60029088731A7
:100C980097278631400129088F31A52786314001E1
:100CA8002F087207A9003008733DAA0008007508CC
:100CB80003195F2E602E652E7508031D642E652EA0
:100CC8006A2E73088F3125278631AB2E7508033EAF
:100CD80086008701160001040319732E742E922EC4
:100CE8007508033E86008701403F4001A000413F50
:100CF800A100750A86008701403FA200413FA3007A
:100D08002308803AA4002108803A2402031D8E2E6D
:100D1800200822020318912E922EAB2E7308400150
:100D2800A000750886008701750A840085010008FF
:100D38000107A10021088600870120088100750AA3
:100D4800860087010130810741310318810A0800B4
:100D58004001A2008E31FE268631410160088F31A4
:100D68001D2786313B308F311D2786318E31FE2677
:100D7800863141016008013E8F311D2786310030E0
:100D88008F3177278631F60076084001A1000030C0
:100D98008F3177278631F60076084001A0000030B1
:100DA8008F3177278631F60076084001A30001309D
:100DB8008F31772786318F31042786314001220809
:100DC800860087012008C03F2108C13F75088600BA
:100DD80087012308C03F2308C13F0800F700F80136
:100DE8007703031DF82EF92EFF2E7808203EF60013
:100DF8007608F800142F7203031D032F042F0A2FFF
:100E08007808403EF6007608F800142F7303031D97
:100E18000E2F0F2F142F7808803EF6007608F80062
:100E28007403031D182F192F1E2F7808103EF60083
:100E38007608F8007503031D222F232F282F780822
:100E4800083EF6007608F8007808013EF6007608B5
:100E5800F800780808004101D000D101D201113012
:100E68004101C8009030C900500886008701010878
:100E7800CE00CF014E08CA004F08CB008F318E2715
:100E8800873101304101CE004E08D0071A304101A8
:100E9800CE00F830890B4E2FCE0B4E2F00000130BC
:100EA8004101D1070030D23D5208803ACE0080304F
:100EB8004E02031D612F04305102031C642F652F5D
:100EC800332F08004001ED006908EF006808EE00C4
:100ED8004101A001A101842F6E30EB006B08D800FE
:100EE8006A08EC006C08D9006D08833188238731C3
:100EF800400158084101A007400159084101A13D9E
:100F080040016E0884006F0885001200031D8D2FB4
:100F18008E2F702F410121084001E900410120086E
:100F28004001E80008004001A800A601A701AF2F72
:100F38002508F700F8017708F3007808F400760828
:100F4800F9007908F50086315B26873101304001C8
:100F5800A6070030A73D26082807F700770886006F
:100F680087010108F8007808A5002508031DBD2F92
:100F7800BE2F9C2F080000304001B0000230B100A5
:100F88003908F6003808F5008731E62787317608F2
:100F98004001B3007508B20085314A258731400108
:100FA8003008BA000130BA35FF3E031DD72F3A3555
:100FB800BB003B08BC003C08033EBA003A08BC0032
:100FC8003C0808007608803AF70080307702031D55
:100FD800EF2F013075020318F22FF32FFF2F750939
:100FE800F7007609F800F70A0319F80A7708F500F8
:080FF8007808F600FF2F080045
:101DFC00430111148F3116278E3108004301111540
:101E0C008F3116278F3108004E01191299168B1736
:101E1C000B170800640080010131890B112F00346D
:101E2C004E010F1C1A2F1B2F162F0F100800F2003B
:101E3C00720843018C008F3116278F310800F20095
:101E4C004E010F1E2A2F2B2F262F720842019A00AB
:101E5C000800F0002A307006031D352F362F382F5E
:101E6C000130392F00300800613051018D00703085
:101E7C008E008F014030910006309300900192014A
:101E8C000800803043018F000830900091019201CE
:101E9C009F308D00400193151316430190160800D6
:101EAC008F313A278F318531AA258F318F316627B3
:101EBC008F318F3147278F318F310A278F310800AF
:101ECC0010307E01A600193042019B009C019F112D
:101EDC001E111F129D171E121D169E164E019916CD
:101EEC000800F300430191158F3116278F31430100
:101EFC000C08F2007208F4000F10730C031C911202
:101F0C000318911611168F3116278F31740808009B
:101F1C00CA304101CC004C08CD0049084001E90011
:101F2C00410148084001E800CD304101CC004C088B
:101F3C004001EA000030873166278F310800F60037
:101F4C007608F4007408F500AF2F0130F400740823
:101F5C00F6077608860087010108031DB62FB72FF8
:101F6C00AB2F75087602F200F301F21BF3030800A5
:101F7C007308F5007208F4000A30F536F40C890B7E
:101F8C00C32F7408F6000130F635FF3E031DCA2F2F
:101F9C007635F7007708F8007808BC39F400740837
:101FAC00F8007808080000304001B0000230B100A1
:101FBC003908F6003808F5008731E6278F317608A6
:101FCC004001B3007508B20085314A258F314001BC
:101FDC003008BA000130BA35FF3E031DF12F3A35F7
:101FEC00BB003B08BC003C08023EBA003A08BC00EF
:101FFC003C080800413458343A34203425346434D5
:10200C0009342034413459343A342534643420347E
:0C201C000D340A340034253464340034E0
:020000040001F9
:08000000FF3FFF3FFF3FFF3F00
:0A000E008C3FFF3F9F3FFF3FFF3F85
:00000001FF
