:040000008031212802
:100008007E1480310C2842011908F1007108FB00A8
:100018004E018F1A1028112807287B08833197234F
:100028008031013A031D19281A281F280130F100D0
:1000380071084001B9007E10090080312328FB01B6
:100048004001B701B801B9017E10400180312C2868
:100058008331472380318331662380316830803192
:10006800B820803140013903031D3B283C2836283D
:100078003530AA002A08F50033308131E421803177
:1000880040013408803AAA0080302A02031D4E2815
:1000980001303302031C5128522856284001B1016F
:1000A800B10A58284001B1013608803AAA008030C8
:1000B8002A02031D612801303502031C64286528C3
:1000C80069284001B201B20A6B284001B2018331AC
:1000D800822380317308F5007208F4008231D82237
:1000E80080314001AA002A08AD0003108D1C0314BA
:1000F800003003180130F20003100D1D0314003006
:1001080003180130F3003108AA002A08F400320865
:10011800AB002B08F50003100D1C03140030093D3B
:100128008231282280314001AC002C08AE0034080E
:10013800A6003308A5008231B22280314001AA000E
:100148002A08AF003608A6003508A50082318C229F
:1001580080314001AA002A08B0002D308231652282
:100168008031362880312128F5007535F300730871
:10017800FA000530F4000F30F300F130890BC22883
:10018800F30BC228F40BC22800008331BC23803152
:100198007A088331A123803119308331A12380313A
:1001A80007308331A12380318331B62380318331F5
:1001B800BC2380317A088331A12380316B308331AD
:1001C800A123803101308331A12380318331B623CB
:1001D80080318331BC2380317A088331A123803177
:1001E8001A308331A123803100308331A12380313B
:1001F8008331B62380318331BC2380317A0883313F
:10020800A12380311B308331A12380310030833119
:10021800A123803100308331A12380318331B6237B
:1002280080318331BC2380317A088331A123803126
:1002380038308331A123803100308331A1238031CC
:100248008331B623803108004001A201F71F2D2910
:100258002E293529F609F709F60A0319F70AA20122
:10026800A20AF91F382939294229F809F909F80A8F
:100278000319F90A0130A0002008A206A301A4016D
:1002880076087704031949294A297929A101A10A7D
:1002980056290130F635F70D890B4E290130A0009B
:1002A8002008A107F71F59295A294D290130A335DC
:1002B800A40D890B5B2977087902031D6529760847
:1002C8007802031C682969296E297608F8027708DC
:1002D800F93B23140130F736F60C890B6F290130EE
:1002E800A102031D782979295A29220803197D2991
:1002F8007E298329A309A409A30A0319A40A2408A7
:10030800F7002308F600080040019601970118300D
:10031800980099019A0137309100FF309200BF3060
:10032800930094010730950031307E01B800F03019
:10033800C3006730CE00D9010730E400B9010730A7
:10034800C400CF01DA01E501BA01C501D001DB0122
:10035800E601FF30BB00FF30C600FF30D100FF30A0
:10036800DC000730E700FF30BC00FF30C700FF307B
:10037800D200FF30DD000F30E80017307D01CB00E0
:10038800103092000D30930010307E01A60013301B
:100398007D01C50014307E01A30014307D01C60024
:1003A80015307E01A400BD01BE01BF01C801C9010D
:1003B800CA01D301D401D501E901EA01EB01080022
:1003C8004001A2008331BC2381317A088331A12303
:1003D80081313B308331A12381318331BC23813189
:1003E8007A08013E8331A1238131003083310E2305
:1003F8008131F60076084001A100003083310E23D8
:100408008131F60076084001A000003083310E23C8
:100418008131F60076084001A300013083310E23B4
:1004280081318331B623813140012208860087015A
:100438002008C03F2108C13F7508860087012308AE
:10044800C03F2308C13F0800F700F80177080319E7
:100458002E2A2F2A352A7808203EF6007608F8003A
:100468004A2A72080319392A3A2A402A7808403E4B
:10047800F6007608F8004A2A73080319442A452A20
:100488004A2A7808803EF6007608F8007403031DAF
:100498004E2A4F2A542A7808103EF6007608F800AB
:1004A8007503031D582A592A5E2A7808083EF60063
:1004B8007608F8007808013EF6007608F800780813
:1004C8000800F400F501F6017408860087010108A8
:1004D80083318D2382310130F3007308F4073430FF
:1004E800F300F230890B762AF30B762A0130F507F0
:1004F8000030F63D7608803AF30080307302031D21
:10050800872A04307502031C8A2A8B2A682A080065
:100518000030F6000230F70040012608F3002508F5
:10052800F2008231F42282317308F9007208F8006F
:1005380081312821823176084001A7000130A73592
:10054800FF3E031DA32A2735A8002808A90029086B
:10055800033EA7002708A900290808000030F60074
:100568000230F70040012608F3002508F200823126
:10057800F42282317308F9007208F80081312821C9
:10058800823176084001A7000130A735FF3E031DE0
:10059800C92A2735A8002808A9002908023EA7006B
:1005A8002708A900290808007508F7007408F6004C
:1005B8000430F736F60C890BDD2A7608F80001308E
:1005C800F835FF3E031DE42A7835F9007908400123
:1005D800A0002008BC39F6007608A0002008080012
:1005E8007308803AF40080307402031DFD2A01303C
:1005F80072020318002B012B0D2B7209F4007309EA
:10060800F500F40A0319F50A7408F2007508F300F6
:100618000D2B0800F300430191158331A923833181
:1006280043010C08F2007208F4000F10730C031C4D
:1006380091120318911611168331A9238331740876
:100648000800413458343A342034253464340934A9
:100658002034413459343A342534643420340D3448
:100668000A34003410307E01A600193042019B0084
:100678009C019F111E111F129D171E121D169E16FA
:100688004E01991608008331752383318131882101
:100698008331833136238331833157238331833147
:1006A800B02383310800803043018F000830900068
:1006B800910192019F308D0040019315131643015B
:1006C80090160800400111140C147E0138144101E1
:1006D8001A169A141A101312980113159317131354
:1006E8000800613051018D0070308E008F0140305C
:1006F8009100063093009001920108004101131403
:100708001318872B882B842B0D08F3000C08F20094
:100718000800F2004E010F1E922B932B8E2B7208AD
:1007280042019A000800F000700A031D9C2B9D2BC3
:100738009F2B0130A02B00300800F2007208430103
:100748008C008331A923833108004E010F1CAD2B87
:10075800AE2BA92B0F1008004E01191299168B17F2
:100768000B170800430111158331A92383310800B1
:0C077800430111148331A92383310800D0
:020000040001F9
:08000000FF3FFF3FFF3FFF3F00
:0A000E008C3FFF3F9F3FFF3FFF3F85
:00000001FF
