:040000008031232800
:100008007E1480310D2842011908F1007108410160
:10001800A7004E018F1A1128122807284101270826
:100028008731A3278031013A031D1B281C2821286A
:100038000130F10071084101A6007E1009008031ED
:100048002528FA01FB01A030840000308500283003
:100058008731C72780317E1040018631212E40012B
:10006800C5003A08CE003B08CF003C08D0003D0848
:10007800D1003E08D2003F08D3004008D400410810
:10008800D5004E30860000308700473FC200C21BB3
:100098004E2850280130512800304001C300C401C7
:1000A8004308CC004408CD004C084D0403195D28D2
:1000B8005E287C28CE09CF09D009D109D209D309F5
:1000C800D409D509CE0A031D7C28CF0A031D7C2834
:1000D800D00A031D7C28D10A031D7C28D20A031DDF
:1000E8007C28D30A031D7C28D40A031D7C28D50A42
:1000F8004101A51B802881288528FD30FA05FF309D
:10010800FB052508803A4001C20080304202031DE9
:1001180090280130410124020318932894289A2832
:1001280001304001C8000030C900A228410125085B
:100138004001C900410124084001C80041012308C9
:100148004001CB00410122084001CA004C084D047F
:10015800031DAF28B028B4287A1DB328B428B828BE
:10016800FF30CA07FF30CB3D1F30D6000030D70024
:100178004101C7012729FF304001D607FF30D73D8D
:100188000A30A000A101A201A301A401A501A601B2
:10019800A7014E08A8004F08A9005008AA00510856
:1001A800AB005208AC005308AD005408AE00550827
:1001B800AF0082319E22803140012108F6002008DC
:1001C800F5008631F42680317508303E4001C200C2
:1001D8005608A83E8600870142088100FF30C807FC
:1001E800FF30C93DFF30CA07FF30CB3D0A30A000C1
:1001F800A101A201A301A401A501A601A7014E081E
:10020800A8004F08A9005008AA005108AB005208DE
:10021800AC005308AD005408AE005508AF0081315A
:100228009A21803140012008CE002108CF00220801
:10023800D0002308D1002408D2002508D3002608BE
:10024800D4002708D50040015708803AC200803002
:100258004202031D312901305602031C3429352975
:10026800612940014E084F045004510452045304BC
:1002780054045504031D41294229BF284908803ADE
:10028800C20080304202031D4B2901304802031886
:100298004E294F29BF2840014B08803AC2008030C0
:1002A8004202031D592901304A02031C5C295D29B9
:1002B8006129FA1860296129BF2840014C084D04BA
:1002C800031D672968296C297A1D6B296C298729E0
:1002D800FF30D607FF30D73D4C084D04031D752964
:1002E80076297B292B30C6000030C7007F292D30A6
:1002F800C6000030C7004608C2005608A83E86005F
:100308008701420881005608A83EC2004208A90099
:100318004B08AB004A08AA004508853134258031CE
:1003280040012A08BB002908BA0008004001B101B1
:100338002030860000308700473FF200F21FA529D1
:10034800A629C8294001A009A109A209A309A4094D
:10035800A509A609A709A00A031DC529A10A031D05
:10036800C529A20A031DC529A30A031DC529A40A74
:10037800031DC529A50A031DC529A60A031DC529EC
:10038800A70A4001B101B10A283086000030870071
:10039800473FF200F21FD129D229F6294001A809C6
:1003A800A909AA09AB09AC09AD09AE09AF09A80AA0
:1003B800031DF129A90A031DF129AA0A031DF12920
:1003C800AB0A031DF129AC0A031DF129AD0A031D6F
:1003D800F129AE0A031DF129AF0A0130F2007208B3
:1003E8004001B10632308600003087000830F20044
:1003F80000301E00F20BFD294001200821042204D0
:100408002304240425042604270403190C2A0D2A8E
:10041800692AB001B00A1C2AA035A10DA20DA30DAE
:10042800A40DA50DA60DA70D0130F2007208B007A6
:10043800A71F1F2A202A102AB235B30DB40DB50DF7
:10044800B60DB70DB80DB90D27082F02031D462AA2
:1004580026082E02031D462A25082D02031D462ABA
:1004680024082C02031D462A23082B02031D462AB2
:1004780022082A02031D462A21082902031D462AAA
:1004880020082802031C492A4A2A5B2A2008A802B5
:100498002108A93B2208AA3B2308AB3B2408AC3B14
:1004A8002508AD3B2608AE3B2708AF3B3214A736DC
:1004B800A60CA50CA40CA30CA20CA10CA00C01303A
:1004C800B002031D682A692A202A310803196D2AF7
:1004D8006E2A8C2AB209B309B409B509B609B70955
:1004E800B809B909B20A031D8C2AB30A031D8C2A5C
:1004F800B40A031D8C2AB50A031D8C2AB60A031DEB
:100508008C2AB70A031D8C2AB80A031D8C2AB90A3B
:1005180040013208A0003308A1003408A2003508C1
:10052800A3003608A4003708A5003808A600390833
:10053800A7000800F4012830860000308700473FF4
:10054800F200F21FA82AA92ACA2A4001A809A90963
:10055800AA09AB09AC09AD09AE09AF09A80A031D80
:10056800C82AA90A031DC82AAA0A031DC82AAB0A51
:10057800031DC82AAC0A031DC82AAD0A031DC82AD0
:10058800AE0A031DC82AAF0AF401F40A2030860017
:1005980000308700473FF200F21FD32AD42AF32AFB
:1005A8004001A009A109A209A309A409A509A6094E
:1005B800A709A00A031DF32AA10A031DF32AA20A08
:1005C800031DF32AA30A031DF32AA40A031DF32A11
:1005D800A50A031DF32AA60A031DF32AA70A400148
:1005E80020082104220423042404250426042704C3
:1005F8000319FF2A002B532BF301F30A0F2BA03505
:10060800A10DA20DA30DA40DA50DA60DA70D0130DA
:10061800F2007208F307A71F122B132B032B2708CE
:100628002F02031D312B26082E02031D312B25080E
:100638002D02031D312B24082C02031D312B230806
:100648002B02031D312B22082A02031D312B2108FE
:100658002902031D312B20082802031C342B352BBB
:10066800452B2008A8022108A93B2208AA3B2308F9
:10067800AB3B2408AC3B2508AD3B2608AE3B27081E
:10068800AF3BA736A60CA50CA40CA30CA20CA10C7E
:10069800A00C0130F302031D522B532B132B7408AB
:1006A8000319572B582B762BA809A909AA09AB09B6
:1006B800AC09AD09AE09AF09A80A031D762BA90A32
:1006C800031D762BAA0A031D762BAB0A031D762B76
:1006D800AC0A031D762BAD0A031D762BAE0A031D4B
:1006E800762BAF0A40012808A0002908A1002A0893
:1006F800A2002B08A3002C08A4002D08A5002E0892
:10070800A6002F08A70008004001E7005808860047
:100718008701403FDA00413FDB005A0884005B084C
:1007280085001200253A031D9A2B9B2B3F2C580855
:10073800860087010130810741310318810A410190
:10074800A201A301FA01FB01FF30A400FF30A500BC
:100758004001580886008701403FDA00413FDB002E
:100768005A0884005B0885001200643A0319BD2BFF
:10077800BE2BCF2B580886008701403FDA00413F47
:10078800DB005A0884005B0885001200693A031DE3
:10079800CE2BCF2B0A2C5808860087010130810701
:1007A80041310318810A590886008701010884002D
:1007B800850102308107003FDA00013FDB005A085B
:1007C800DF005B08E000890D893B8909E100E20050
:1007D800E300E400E500E6005F08BA006008BB003B
:1007E8006108BC006208BD006308BE006408BF0061
:1007F8006508C0006608C10067088031332083316E
:1008080040013B08D9003A08D800622C58088600F5
:100818008701403FDA00413FDB005A0884005B084B
:1008280085001200253A031D1A2C1B2C342C58085D
:10083800860087010130810741310318810A25307C
:10084800F3000030F4006708DA005A08F500853133
:100858008A25833101304001D8000030D900622C4C
:100868005808860087010130810741310318810A41
:10087800D801D901622C580886008701403FDA0068
:10088800413FDB005A0884005B0885000008DC0053
:10089800DD015C08F3005D08F4006708DE005E080F
:1008A800F50085318A258331400158088600870183
:1008B8000130810741310318810A2E2C0800F50008
:1008C8007535F30073084101DD000530F4000F3081
:1008D800F300F130890B6E2CF30B6E2CF40B6E2C9D
:1008E80000008731D927843141015D088731B82755
:1008F800843119308731B827843107308731B827D8
:1009080084318731D32784318731D9278431410114
:100918005D088731B82784316B308731B827843137
:1009280001308731B82784318731D3278431873123
:10093800D927843141015D088731B82784311A30BD
:100948008731B827843100308731B827843187311F
:10095800D32784318731D927843141015D08873114
:10096800B82784311B308731B8278431003087316C
:10097800B827843100308731B82784318731D327AD
:1009880084318731D927843141015D088731B827FF
:10099800843138308731B827843100308731B8271F
:1009A80084318731D32784310800400196019701AB
:1009B8001830980099019A0130309100F030920077
:1009C800BF30930094010730950030307E01B800A5
:1009D800F030C3006730CE00D9010730E400B90118
:1009E800C401CF01DA01E501BA01C501D001DB017B
:1009F800E601FF30BB00FF30C600FF30D100FF30FA
:100A0800DC000730E700FF30BC00FF30C700FF30D4
:100A1800D200FF30DD000F30E80017307D01CB0039
:100A2800103092000D30930010307E01A600133074
:100A38007D01C50014307E01A30014307D01C6007D
:100A480015307E01A400BD01BE01BF01C801C90166
:100A5800CA01D301D401D501E901EA01EB0108007B
:100A68004001B1007A1C392D3A2D422D3108AC00D5
:100A78002C08F60029088631CC2685314001AB1BAD
:100A8800462D472D4C2D2B08B0002A08AF004E2DBF
:100A9800AF01B001AD01AE01622D2030F30000308E
:100AA800F40040013108AC002C08F50085318A2596
:100AB800853101304001AD070030AE3D2E08803A47
:100AC800AC003008803A2C02031D6C2D2F082D0233
:100AD800031C6F2D702D512D7A18732D742D7D2DBB
:100AE80040013108AC002C08F60029088631CC26D4
:100AF80085314001290887310E27853140012F08AB
:100B08007207A9003008733DAA0008007508031988
:100B18008E2D8F2D942D7508031D932D942D992DB1
:100B280073088731AE278531DA2D7508033E8600B4
:100B38008701160001040319A22DA32DC12D7508E4
:100B4800033E86008701403F4001A000413FA100CD
:100B5800750A86008701403FA200413FA300230891
:100B6800803AA4002108803A2402031DBD2D2008E4
:100B780022020318C02DC12DDA2D73084001A000F0
:100B8800750886008701750A840085010008010739
:100B9800A10021088600870120088100750A8600C7
:100BA80087010130810741310318810A080040019B
:100BB800A2008731D927853141015D088731B827DF
:100BC80085313B308731B82785318731D927853141
:100BD80041015D08013E8731B827853100308731F2
:100BE8003E278531F60076084001A10000308731A4
:100BF8003E278531F60076084001A0000030873195
:100C08003E278531F60076084001A3000130873180
:100C18003E2785318731D327853140012208860058
:100C280087012008C03F2108C13F75088600870159
:100C38002308C03F2308C13F080087317727863142
:100C4800683084316324863101304101D300530870
:100C5800A6002603031D312E322E282EDB30D300AA
:100C68005308F500D9308531DB2586310430410140
:100C7800D3005308D5000930D3005308D6001230EA
:100C8800D3005308D7002330D3005308D800D530F9
:100C98008631612686314101A60115304101D40013
:100CA8004B30D300BE30890B572ED30B572ED40BA5
:100CB800572E0000282E803123284101D000D10171
:100CC800D201DF304101C8008730C90050088600D2
:100CD80087010108CE00CF014E08CA004F08CB009B
:100CE80087312727863101304101CE004E08D007D1
:100CF80003304101CF000830CE007730890B822EB7
:100D0800CE0B822ECF0B822E01304101D10700304D
:100D1800D23D5208803ACE0080304E02031D962EF6
:100D280004305102031C992E9A2E652E08004001AA
:100D3800ED006908EF006808EE004101A001A1017B
:100D4800B92E6E30EB006B08D8006A08EC006C080E
:100D5800D9006D0883318823863140015808410144
:100D6800A007400159084101A13D40016E088400D7
:100D78006F0885001200031DC22EC32EA52E410147
:100D880021084001E900410120084001E80008006D
:100D98004001A800A601A701E42E2508F700F801E4
:100DA8007708F3007808F4007608F9007908F50068
:100DB80085318A25863101304001A6070030A73DDC
:100DC80026082807F7007708860087010108F80039
:100DD8007808A5002508031DF22EF32ED12E080051
:100DE8007608803AF70080307702031DFD2E013027
:100DF80075020318002F012F0D2F7509F7007609CA
:100E0800F800F70A0319F80A7708F5007808F600D9
:100E18000D2F0800F6007608F4007408F500182F66
:100E28000130F4007408F607760886008701010887
:100E3800031D1F2F202F142F75087602F200F301CF
:100E4800F21BF3030800CA304101CC004C08CD0066
:100E580049084001E900410148084001E800CD3057
:100E68004101CC004C084001EA00003086319B2645
:100E780087310800F300430191158731C027873176
:100E880043010C08F2007208F4000F10730C031CE5
:100E980091120318911611168731C02787317408EB
:100EA8000800413458343A34203425346434093441
:100EB8002034413459343A342534643420340D34E0
:100EC8000A34003410307E01A600193042019B001C
:100ED8009C019F111E111F129D171E121D169E1692
:100EE8004E01991608008731962787318431D92415
:100EF800873187316627873187318727873187315F
:100F0800CD2787310800803043018F0008309000DA
:100F1800910192019F308D004001931513164301F2
:100F280090160800613051018D0070308E008F01DD
:100F38004030910006309300900192010800F000C3
:100F4800AA307006031DA92FAA2FAC2F0130AD2F90
:100F580000300800F2004E010F1EB32FB42FAF2F40
:100F6800720842019A000800F200720843018C00DE
:100F78008731C027873108004E010F1CC42FC52FA9
:100F8800C02F0F100800640080010131890BC82FA1
:100F980000344E01191299168B170B1708004301DC
:100FA80011158731C0278731080043011114873193
:0C0FB800C0278731080025346434003461
:020000040001F9
:08000000FF3FFF3FFF3FFF3F00
:0A000E008C3FFF3F9F3FFF3FFF3F85
:00000001FF
