:08000000803102288731F52F41
:1006820043011114833159238331080043011115A9
:1006920083315923833108004E01191299168B17A1
:1006A2000B170800640080010131890B542B0034C0
:1006B2004E010F1C5D2B5E2B592B0F100800F00012
:1006C200700843018C008331592383310800F00004
:1006D2004E010F1E6D2B6E2B692B700842019A0082
:1006E2000800613051018D0070308E008F01403062
:1006F200910006309300900192010800803043017E
:100702008F0008309000910192019F308D004001CE
:100712009315131643019016080010307E01A600AF
:10072200193042019B009C019F111E111F129D173F
:100732001E121D169E1608008331722383318431E6
:10074200CE24833183318E23833183317F238331DE
:1007520083314D238331080061304001E300630897
:10076200E4006008D8005F08D7006430E300630843
:10077200D90000308331D62383310800F1004301D0
:10078200911583315923833143010C08F00070081D
:10079200F2000F10710C031C91120318911611161E
:1007A200833159238331720808004001DC00580864
:1007B200DE005708DD00C001C101F02B5D30DA0018
:1007C2005A08CE005908DB005B08CF005C0886316E
:1007D2000926833140014E08C0074F08C13D5D081C
:1007E20084005E0885001200031DF82BF92BDF2B15
:1007F2004108D8004008D700080083319D23833187
:10080200683085319325833169304001E500650800
:10081200F300673084313E24833111304001DF0020
:100822008830E0000030F000F100F201F20AF3013A
:10083200F4016808F6006708F5006A08F80069081C
:10084200F7008631B82683314001E500E6016508EC
:10085200E1006608E2008331AD23833103304001B9
:10086200E6000830E5007730890B352CE50B352C96
:10087200E60B352C052C80310228F7008331412309
:10088200843140016B088331602384313B308331F2
:100892006023843183314123843140016B08013E5E
:1008A20083316023843100308331BF238431F400EB
:1008B2007408F60000308331BF238431F4007408D9
:1008C200F50000308331BF238431F4007408F8004E
:1008D20001308331BF238431833147238431770848
:1008E200860087017508C03F7608C13F73088600FD
:1008F20087017808C03F7808C13F080073080319D0
:10090200832C842C892C7308031D882C892C8E2C13
:100912007108833168238431CD2C7308033E86002D
:100922008701160001040319972C982CB52C730823
:10093200033E86008701403FF400413FF500730A01
:1009420086008701403FF600413FF7007708803A72
:10095200F8007508803A7802031DB12C74087602FB
:100962000318B42CB52CCD2C7108F4007308860042
:100972008701730A8400850100080107F5007508E4
:100982008600870174088100730A8600870101309E
:10099200810741310318810A08004001960197013D
:1009A2001830980099019A0130309100F13092008C
:1009B200BF30930094010730950030307E01B800BB
:1009C200F030C3006730CE00D9010730E400B9012E
:1009D200C401CF01DA01E501BA01C501D001DB0191
:1009E200E601FF30BB00FF30C600FF30D100FF3010
:1009F200DC000730E700FF30BC00FF30C700FF30EB
:100A0200D200FF30DD000F30E80017307D01CB004F
:100A1200103092000D30930010307E01A60013308A
:100A22007D01C50014307E01A30014307D01C60093
:100A320015307E01A400BD01BE01BF01C801C9017C
:100A4200CA01D301D401D501E901EA01EB01080091
:100A52004001CD0042084304031D302D312D362DB7
:100A62004308CC004208CB003C2D4208FF3ECB009D
:100A7200FF30433DCC00461C3F2D402D4E2D7908C2
:100A8200FB00FC017B08F1007C08F2004D08FD0030
:100A92007D08F30084317F2485314001CC1B522D27
:100AA200532D542D562DCB01CC01C901CA016A2DFB
:100AB2002030F1000030F20040014D08FB007B08BD
:100AC200F30084317F24853101304001C9070030B1
:100AD200CA3D4A08803AFB004C08803A7B02031D5B
:100AE200742D4B084902031C772D782D592D400196
:100AF20046187C2D7D2D8B2D7908FB00FC017B088F
:100B0200F1007C08F2004D08FD007D08F3008431FD
:100B12007F24853140014908013EF90000304A3DF9
:100B2200FA000800F3007335F10071084001EB0090
:100B32000530F2000F30F100F130890B9E2DF10BE0
:100B42009E2DF20B9E2D0000833141238531400101
:100B52006B088331602385311930833160238531FD
:100B620007308331602385318331472385318331D7
:100B72004123853140016B088331602385316B301D
:100B820083316023853101308331602385318331A4
:100B92004723853183314123853140016B088331FD
:100BA200602385311A3083316023853100308331EF
:100BB2006023853183314723853183314123853158
:100BC20040016B088331602385311B308331602300
:100BD20085310030833160238531003083316023D9
:100BE200853183314723853183314123853140016A
:100BF2006B0883316023853138308331602385313E
:100C020000308331602385318331472385310800E9
:100C12004001D6004E0886008701403FD000413F88
:100C2200D10050088400510885001200253A031DA6
:100C32001B2E1C2E942E4E08860087010130810740
:100C420041310318810AC201C301C601C701FF3045
:100C5200C400FF30C5004E0886008701403FD00027
:100C6200413FD10050088400510885001200633AC8
:100C7200031D3C2E3D2E5F2E4E088600870101305B
:100C8200810741310318810A4F0886008701010854
:100C920084008501023081070008D0005008D50089
:100CA2005508D0005008F9005608853129258631AB
:100CB2007A084001CF007908CE00B72E4E08860090
:100CC2008701403FD000413FD100500884005108C5
:100CD20085001200253A031D6F2E702E892E4E08B4
:100CE200860087010130810741310318810A2530CE
:100CF200F1000030F2005608D0005008F3008431B1
:100D02007F24863101304001CE000030CF00B72E63
:100D12004E08860087010130810741310318810A9C
:100D2200CE01CF01B72E4E0886008701403FD0008A
:100D3200413FD10050088400510885000008D200CC
:100D4200D3015208F1005308F2005608D4005408A7
:100D5200F30084317F24863140014E0886008701EA
:100D62000130810741310318810A832E0800FA01FC
:100D720070037104031DBE2EBF2EC32E0130F90075
:100D82007908FA077203031DC72EC82E2C2F0230D2
:100D9200F9007908FA077608803AF90058307902A2
:100DA200031DD52EF0307502031CD82ED92EE62E47
:100DB2007608803AF900A7307902031DE22E11303D
:100DC2007502031CE52EE62EFB2E1030F900790881
:100DD200FA077608803AF900A7307902031DF32E4C
:100DE20011307502031CF62EF72EFB2E2030F9006F
:100DF2007908FA077808803AF90064307902031D0D
:100E0200042FA8307702031C072F082F152F78080C
:100E1200803AF9009B307902031D112F5930770275
:100E2200031C142F152F2A2F4030F9007908FA07D6
:100E32007808803AF9009B307902031D222F59303D
:100E42007702031C252F262F2A2F8030F9007908DC
:100E5200FA077A08F42F7303031D302F312F902FD6
:100E62000430F9007908FA077608803AF900583018
:100E72007902031D3E2FF0307502031C412F422FD1
:100E82004F2F7608803AF900A7307902031D4B2FC5
:100E920011307502031C4E2F4F2F642F1030F900B2
:100EA2007908FA077608803AF900A7307902031D1B
:100EB2005C2F11307502031C5F2F602F642F2030CE
:100EC200F9007908FA077808803AF9006430790263
:100ED200031D6D2FA8307702031C702F712F7E2FF8
:100EE2007808803AF9009B307902031D7A2F593035
:100EF2007702031C7D2F7E2F2A2F4030F9007908BC
:100F0200FA077808803AF9009B307902031D8B2F8B
:100F120059307702031C8E2F8F2F2A2F262F74030E
:100F2200031D942F952F2A2F0830F9007908FA070C
:100F32007608803AF90058307902031DA22FF0306A
:100F42007502031CA52FA62FB32F7608803AF9004D
:100F5200A7307902031DAF2F11307502031CB22F87
:100F6200B32FC82F1030F9007908FA077608803AB3
:100F7200F900A7307902031DC02F11307502031C3E
:100F8200C32FC42FC82F2030F9007908FA07780838
:100F9200803AF90064307902031DD12FA83077021C
:100FA200031CD42FD52FE22F7808803AF9009B300A
:100FB2007902031DDE2F59307702031CE12FE22F45
:100FC2002A2F4030F9007908FA077808803AF900A8
:100FD2009B307902031DEF2F59307702031CF22F49
:100FE200F32F2A2F262F080020308400003085009E
:100FF200293083315323873140018331FE2B413421
:1010020058343A3420342534643409342034413499
:1010120059343A342534643420340D340A340034DB
:06102200253463340034A4
:020000040001F9
:0A000E008C3FFF3F9F3FFF3FFF3F85
:00000001FF
