:040000008031212802
:100008007E1480310C2842011908F1007108FB00A8
:100018004E018F1A1028112807287B088231DE220A
:100028008031013A031D19281A281F280130F100D0
:1000380071084001B4007E10090080312328FB01BB
:100048004001B4017E10400181315529F500753514
:10005800F3007308FA000530F4000F30F300F130B4
:10006800890B3428F30B3428F40B3428000083312F
:100078000E2380317A088231F3228031193082319F
:10008800F322803107308231F32280318331082313
:10009800803183310E2380317A088231F322803116
:1000A8006B308231F322803101308231F32280318A
:1000B80083310823803183310E2380317A088231DD
:1000C800F32280311A308231F322803100308231BC
:1000D800F322803183310823803183310E2380312C
:1000E8007A088231F32280311B308231F322803149
:1000F80000308231F322803100308231F3228031A6
:1001080083310823803183310E2380317A0882318C
:10011800F322803138308231F3228031003082314D
:10012800F322803183310823803108004001A20185
:10013800F71F9F28A028A728F609F709F60A031928
:10014800F70AA201A20AF91FAA28AB28B428F809BD
:10015800F909F80A0319F90A0130A0002008A206D3
:10016800A301A401760877040319BB28BC28EB284F
:10017800A101A10AC8280130F635F70D890BC0285E
:100188000130A0002008A107F71FCB28CC28BF28E2
:100198000130A335A40D890BCD2877087902031DFA
:1001A800D72876087802031CDA28DB28E0287608A6
:1001B800F8027708F93B23140130F736F60C890B5F
:1001C800E1280130A102031DEA28EB28CC282208E7
:1001D8000319EF28F028F528A309A409A30A03198D
:1001E800A40A2408F7002308F60008004001960135
:1001F80097011830980099019A0130309100F03039
:100208009200BF30930094010730950030307E0192
:10021800B800F030C3006730CE00D9010730E400E1
:10022800B901C401CF01DA01E501BA01C501D00164
:10023800DB01E601FF30BB00FF30C600FF30D10014
:10024800FF30DC000730E700FF30BC00FF30C7009C
:10025800FF30D200FF30DD000F30E80017307D019D
:10026800CB00103092000D30930010307E01A600B4
:1002780013307D01C50014307E01A30014307D01C8
:10028800C60015307E01A400BD01BE01BF01C80132
:10029800C901CA01D301D401D501E901EA01EB0181
:1002A80008008231B2228131683080312A208131C0
:1002B80001304001AA002A08B4003403031D65294F
:1002C80066295C293230AA002A08F50030308131CD
:1002D800A321813104304001AA002A08AC00113062
:1002E800AA002A08AD003108A6003008A50082310E
:1002F800392281314001AA002A08AE003308A6003D
:100308003208A5008231132281314001AA002A084F
:10031800AF002C308131E72181314001B401153023
:100328004001AB004B30AA00BE30890B9929AA0BBB
:100338009929AB0B992900005C29803121284001BB
:10034800A20083310E2381317A088231F322813170
:100358003B308231F322813183310E2381317A0897
:10036800013E8231F322813100308231792281319C
:10037800F60076084001A1000030823179228131EF
:10038800F60076084001A0000030823179228131E0
:10039800F60076084001A3000130823179228131CC
:1003A8008331082381314001220886008701200813
:1003B800C03F2108C13F7508860087012308C03F58
:1003C8002308C13F0800F500F601F701750886000B
:1003D800870101088231E92281310130F300730875
:1003E800F5070330F4000830F3007730890BFA2959
:1003F800F30BFA29F40BFA2900000130F607003054
:10040800F73D7708803AF30080307302031D0E2A07
:1004180004307602031C112A122AEA290800003047
:10042800F6000230F70040012608F3002508F20024
:1004380082315F2282317308F9007208F800803136
:100448009A20823176084001A7000130A735FF3E87
:10045800031D2A2A2735A8002808A9002908033ED1
:10046800A7002708A900290808000030F600023074
:10047800F70040012608F3002508F20082315F22C8
:1004880082317308F9007208F80080319A208231AD
:1004980076084001A7000130A735FF3E031D502A0A
:1004A8002735A8002808A9002908023EA700270820
:1004B800A900290808007308803AF4008030740203
:1004C800031D682A0130720203186B2A6C2A782AE5
:1004D8007209F4007309F500F40A0319F50A74089F
:1004E800F2007508F300782A0800F300430191151B
:1004F8008231FB22823143010C08F2007208F400B9
:100508000F10730C031C91120318911611168231E7
:10051800FB22823174080800413458343A342034BC
:100528002534643409342034413459343A34253478
:10053800643420340D340A34003410307E01A600AF
:10054800193042019B009C019F111E111F129D171B
:100558001E121D169E164E01991608008231D122D0
:1005680082318031FA2082318231A1228231823176
:10057800C222823183310223823108008030430154
:100588008F0008309000910192019F308D0040014A
:1005980093151316430190160800613051018D0020
:1005A80070308E008F01403091000630930090012A
:1005B80092010800F000AA307006031DE42AE52A1B
:1005C800E72A0130E82A00300800F2004E010F1E29
:1005D800EE2AEF2AEA2A720842019A000800F2007D
:1005E800720843018C008231FB22823108004E01DF
:1005F8000F1CFF2A002BFB2A0F1008004E011912AE
:1006080099168B170B170800430111158231FB222D
:1006180083310800430111148231FB228331080021
:020000040001F9
:0A000E008C3FFF3F9F3FFF3FFF3F85
:00000001FF
