:0400000080313728EC
:100008007E1480310D2842011908F0007008400163
:10001800EF004E018F1A11281228072842019D1C53
:10002800162817281B281D12000042011D164E0114
:10003800121C1F282028352812104001190EF00024
:10004800700C0139F0000130F006F00EF00D1908BF
:100058007006DF3970069900013046018D00343092
:100068008C007E1009008031392841018731FF2733
:100078008031E6004001ED01EE01EF01DE30840041
:100088000030850008308731E72780312030840030
:100098000130850020308731E72780317E1040010C
:1000A8008731B12F4001BD003008C4003108C500B8
:1000B8003208C6003308C7003408C8003508C9002C
:1000C8003608CA003708CB00443086000030870065
:1000D800473FB800B81B71287328013074280030D6
:1000E8004001B900BA013908C2003A08C300420801
:1000F80043040319802881289F28C409C509C60913
:10010800C709C809C909CA09CB09C40A031D9F2818
:10011800C50A031D9F28C60A031D9F28C70A031D79
:100128009F28C80A031D9F28C90A031D9F28CA0AB9
:10013800031D9F28CB0A4101E31BA328A428A92853
:10014800FD304001ED05FF30EE0541016308803ABE
:100158004001B80080303802031DB5280130410144
:1001680062020318B828B928BF2801304001BE0030
:100178000030BF00C728410163084001BF004101AA
:1001880062084001BE00410161084001C10041010F
:1001980060084001C00042084304031DD428D52844
:1001A800D9286D1DD828D928DD28FF30C007FF3091
:1001B800C13D1F30CC000030CD004201BF014D29A8
:1001C800FF304001CC07FF30CD3D0A30A000A1012F
:1001D800A201A301A401A501A601A7014408A80042
:1001E8004508A9004608AA004708AB004808AC0023
:1001F8004908AD004A08AE004B08AF008231C3225F
:10020800803140012108F5002008F400873141279A
:1002180080317408303E4001B8004C08203E86000A
:100228000130870038088100FF30BE07FF30BF3D2E
:10023800FF30C007FF30C13D0A30A000A101A20174
:10024800A301A401A501A601A7014408A800450827
:10025800A9004608AA004708AB004808AC004908AE
:10026800AD004A08AE004B08AF008131C221803191
:1002780040012008C4002108C5002208C600230840
:10028800C7002408C8002508C9002608CA0027088E
:10029800CB0040014D08803AB80080303802031D79
:1002A800572901304C02031C5A295B29882940012F
:1002B8004408450446044704480449044A044B04D6
:1002C800031D67296829E4283F08803AB800803070
:1002D8003802031D712901303E020318742975295B
:1002E800E42840014108803AB80080303802031DF4
:1002F8007F2901304002031C822983298829400173
:10030800ED1887298829E428400142084304031D81
:100318008E298F2993296D1D92299329AF29FF30A2
:10032800CC07FF30CD3D42084304031D9C299D297D
:10033800A2292B30BB000030BC00A6292D30BB0001
:100348000030BC003B08B8004C08203E8600013055
:100358008700380881004C08203EB8003808A700FC
:100368004108A9004008A8003D088531552580317D
:1003780040012808B1002708B0000800F301203028
:10038800860000308700473FF100F11FCC29CD29B6
:10039800EE294001A009A109A209A309A409A509F8
:1003A800A609A709A00A031DEC29A10A031DEC2927
:1003B800A20A031DEC29A30A031DEC29A40A031DA4
:1003C800EC29A50A031DEC29A60A031DEC29A70A96
:1003D800F301F30A2830860000308700473FF10018
:1003E800F11FF729F8291B2A4001A809A909AA0918
:1003F800AB09AC09AD09AE09AF09A80A031D172A54
:10040800A90A031D172AAA0A031D172AAB0A031DE6
:10041800172AAC0A031D172AAD0A031D172AAE0AAC
:10042800031D172AAF0A0130F1007108F306743072
:100438008600003087000830F10000301E00F10B04
:10044800222A40012008210422042304240425042C
:10045800260427040319312A322A8E2AF201F20AC5
:10046800412AA035A10DA20DA30DA40DA50DA60D21
:10047800A70D0130F1007108F207A71F442A452A89
:10048800352AF435F50DF60DF70DF80DF90DFA0DC1
:10049800FB0D27082F02031D6B2A26082E02031DB9
:1004A8006B2A25082D02031D6B2A24082C02031D24
:1004B8006B2A23082B02031D6B2A22082A02031D1C
:1004C8006B2A21082902031D6B2A20082802031C15
:1004D8006E2A6F2A802A2008A8022108A93B220830
:1004E800AA3B2308AB3B2408AC3B2508AD3B2608B8
:1004F800AE3B2708AF3B7414A736A60CA50CA40C7A
:10050800A30CA20CA10CA00C0130F202031D8D2A31
:100518008E2A452A73080319922A932AB12AF409C4
:10052800F509F609F709F809F909FA09FB09F40ABE
:10053800031DB12AF50A031DB12AF60A031DB12AC3
:10054800F70A031DB12AF80A031DB12AF90A031D87
:10055800B12AFA0A031DB12AFB0A74084001A00057
:100568007508A1007608A2007708A3007808A400FF
:100578007908A5007A08A6007B08A7000800F301FF
:100588002830860000308700473FF100F11FCD2A50
:10059800CE2AEF2A4001A809A909AA09AB09AC0982
:1005A800AD09AE09AF09A80A031DED2AA90A031D62
:1005B800ED2AAA0A031DED2AAB0A031DED2AAC0A8F
:1005C800031DED2AAD0A031DED2AAE0A031DED2A0F
:1005D800AF0AF301F30A2030860000308700473F56
:1005E800F100F11FF82AF92A182B4001A009A109E6
:1005F800A209A309A409A509A609A709A00A031D18
:10060800182BA10A031D182BA20A031D182BA30AD5
:10061800031D182BA40A031D182BA50A031D182B4C
:10062800A60A031D182BA70A40012008210422044A
:10063800230424042504260427040319242B252B2A
:10064800782BF201F20A342BA035A10DA20DA30DCF
:10065800A40DA50DA60DA70D0130F1007108F20734
:10066800A71F372B382B282B27082F02031D562BA3
:1006780026082E02031D562B25082D02031D562B76
:1006880024082C02031D562B23082B02031D562B6E
:1006980022082A02031D562B21082902031D562B66
:1006A80020082802031C592B5A2B6A2B2008A80261
:1006B8002108A93B2208AA3B2308AB3B2408AC3BF2
:1006C8002508AD3B2608AE3B2708AF3BA736A60C4E
:1006D800A50CA40CA30CA20CA10CA00C0130F202D6
:1006E800031D772B782B382B730803197C2B7D2B54
:1006F8009B2BA809A909AA09AB09AC09AD09AE0940
:10070800AF09A80A031D9B2BA90A031D9B2BAA0A44
:10071800031D9B2BAB0A031D9B2BAC0A031D9B2BB4
:10072800AD0A031D9B2BAE0A031D9B2BAF0A40018C
:100738002808A0002908A1002A08A2002B08A30065
:100748002C08A4002D08A5002E08A6002F08A70035
:1007580008004001DD004E0886008701403FD000B8
:10076800413FD10050088400510885001200253A05
:10077800031DBF2BC02B662C4E0886008701013055
:10078800810741310318810A4101E001E10140017B
:10079800ED01EE01FF304101E200FF30E3004001CE
:1007A8004E0886008701403FD000413FD1005008E5
:1007B8008400510885001200643A0319E42BE52BE4
:1007C800F62B4E0886008701403FD000413FD100FC
:1007D80050088400510885001200693A031DF52B62
:1007E800F62B312C4E0886008701013081074131F4
:1007F8000318810A4F0886008701010884008501D3
:1008080002308107003FD000013FD1005008D500D9
:100818005108D600890D893B8909D700D800D9002D
:10082800DA00DB00DC005508B0005608B1005708B4
:10083800B2005808B3005908B4005A08B5005B085C
:10084800B6005C08B7005D0880315620833140014E
:100858003108CF003008CE00892C4E088600870169
:10086800403FD000413FD100500884005108850026
:100878001200253A031D412C422C5B2C4E088600A1
:1008880087010130810741310318810A2530F200C0
:100898000030F3005D08D0005008F4008531AB2526
:1008A800833101304001CE000030CF00892C4E0842
:1008B800860087010130810741310318810ACE0182
:1008C800CF01892C4E0886008701403FD000413F68
:1008D800D10050088400510885000008D200D301D7
:1008E8005208F2005308F3005D08D4005408F400DD
:1008F8008531AB25833140014E08860087010130E0
:10090800810741310318810A552C0800F600763515
:10091800F4007408FC000530F5000F30F400F130E5
:10092800890B942CF40B942CF50B942C0000873134
:10093800F92784317C088731DF27843119308731E2
:10094800DF27843107308731DF2784318731F32768
:1009580084318731F92784317C088731DF27843156
:100968006B308731DF27843101308731DF278431CD
:100978008731F32784318731F92784317C0887311F
:10098800DF2784311A308731DF27843100308731FF
:10099800DF2784318731F32784318731F927843180
:1009A8007C088731DF2784311B308731DF2784318A
:1009B80000308731DF27843100308731DF278431E9
:1009C8008731F32784318731F92784317C088731CF
:1009D800DF27843138308731DF2784310030873191
:1009E800DF2784318731F3278431080040019601DD
:1009F80097011830980099019A0130309100F13030
:100A08009200BF30930094010730950030307E018A
:100A1800B800F030C3006730CE00D9010730E400D9
:100A2800B901C401CF01DA01E501BA01C501D0015C
:100A3800DB01E601FF30BB00FF30C600FF30D1000C
:100A4800FF30DC000730E700FF30BC00FF30C70094
:100A5800FF30D200FF30DD000F30E80017307D0195
:100A6800CB00103092000D30930010307E01A600AC
:100A780013307D01C50014307E01A30014307D01C0
:100A8800C60015307E01A400BD01BE01BF01C8012A
:100A9800C901CA01D301D401D501E901EA01EB0179
:100AA80008004001AE006D1C5A2D5B2D632D2E08E9
:100AB800FB007B08FA002708863193268531400120
:100AC800A91B672D682D6D2D2908AD002808AC00DD
:100AD8006F2DAC01AD01AA01AB01832D2030F200CE
:100AE8000030F30040012E08FB007B08F40085313C
:100AF800AB25853101304001AA070030AB3D2B08FA
:100B0800803AFB002D08803A7B02031D8D2D2C08AE
:100B18002A02031C902D912D722D40016D18952DE0
:100B2800962D9E2D2E08FB007B08FA00270886319B
:100B380093268531400127088731272785314001D1
:100B48002C087107A7002D08723DA800080074083A
:100B58000319AF2DB02DB52D7408031DB42DB52D77
:100B6800BA2D72088731D5278531F92D7408033ECF
:100B780086008701160001040319C32DC42DE12D39
:100B88007408033E86008701403FF500413FF600A8
:100B9800740A86008701403FF700413FF800780853
:100BA800803AF9007608803A7902031DDD2D750830
:100BB80077020318E02DE12DF92D7208F50074086D
:100BC80086008701740A8400850100080107F60081
:100BD80076088600870175088100740A86008701F7
:100BE8000130810741310318810A0800FA00873172
:100BF800F92785317C088731DF2785313B308731FC
:100C0800DF2785318731F92785317C08013E873117
:100C1800DF278531003087315B278531F70077087A
:100C2800F900003087315B278531F7007708F80035
:100C3800003087315B278531F7007708FB000130EA
:100C480087315B2785318731F32785317A0886001C
:100C580087017808C03F7908C13F76088600870178
:100C68007B08C03F7B08C13F08004001E3005F08E4
:100C7800E5005E08E4004101DE01DF01572E643023
:100C8800E1006108CE006008E2006208CF00630856
:100C98008331AD23863140014E084101DE07400112
:100CA8004F084101DF3D4001640884006508850064
:100CB8001200031D602E612E432E41015F08400182
:100CC800DF0041015E084001DE0008004101A1008B
:100CD80068304001EC006C084101A0002108400187
:100CE800EC006C084101A200A301A401A501A60122
:100CF80040016708DF006608DE00A030EC006C08E1
:100D0800E000A230863139268631410123082107C7
:100D18004001EC006C088600870181010800400151
:100D2800A600A401A501AB2E2308A000A10120085C
:100D3800F2002108F3007A08A2002208F4008531A5
:100D4800AB25863101304001A4070030A53D2408B9
:100D58002607A00020088600013087000108A100AE
:100D68002108A3002308031DBA2EBB2E982E0800C5
:100D7800DC304101A7002708F600DA308531FA2572
:100D8800863172304001E6008730E70041015B0898
:100D98004001E90041015A084001E80041015D08AD
:100DA8004001EB0041015C084001EA00A8308631AF
:100DB8006A268631A8308731092786310800022F34
:100DC8004301901FE82EE92E022F03104001171D42
:100DD80003140318F02EF32E40011715F52E4001C9
:100DE80017110230F2000430F100BA30890BFA2EE4
:100DF800F10BFA2EF20BFA2E0032E92E4E010F1CDF
:100E0800062F072FE42E0F100800F500F301F40158
:100E18001B2F73087507F200720886008701010806
:100E28008731CB2787310130F3070030F43D730851
:100E38007507F2007208860087010108031D252F37
:100E4800262F0D2F0800F5007508F3007308F4002D
:100E5800312F0130F3007308F5077508860001305B
:100E680087000108031D392F3A2F2D2F74087502AA
:100E7800F100F201F11BF20308007508803AF60050
:100E880080307602031D4A2F0130740203184D2F5B
:100E98004E2F5A2F7409F6007509F700F60A031940
:100EA800F70A7608F4007708F5005A2F0800F400CE
:100EB800430191158631E326873143010C08F3007D
:100EC8007308F5000F10740C031C91120318911687
:100ED80011168631E32687317508080041345834E5
:100EE8003A342034253464340934203441345934B4
:100EF8003A342534643420340D340A3400348731CC
:100F0800BE2787318431FA24873187319327873187
:100F18008731A22787318731ED27873108001030C4
:100F28007E01A600193042019B009C019F111E11F1
:100F38001F129D171E121D169E16080080304301B1
:100F48008F0008309000910192019F308D00400180
:100F580093151316430190160800873183278731AC
:100F6800683084318A2487318631BC268731B82F8E
:100F780080313728613051018D0070308E008F012B
:100F88004030910006309300900192010800F10072
:100F98004E010F1ED02FD12FCC2F710842019A007D
:100FA8000800F1004E010F1EDA2FDB2FD62F710833
:100FB80042019A000800F300730843018C0086314F
:100FC800E32687310800640080010131890BE82F8E
:100FD80000344E01191299168B170B17080043019C
:100FE80011158631E3268731080043011114863133
:080FF800E326873108000834EC
:020000040001F9
:08000000FF3FFF3FFF3FFF3F00
:0A000E008C3FFF3F9F3FFF3FFF3F85
:00000001FF
