:040000008031212802
:100008007E1480310C2842011908F1007108FB00A8
:100018004E018F1A1028112807287B088331712375
:100028008031013A031D19281A281F280130F100D0
:1000380071084001B7007E10090080312328FB01B8
:100048004001B7017E10400180312A2883314523C1
:10005800803168308031B820803101304001AA00F9
:100068002A08B7003703031D3A283B2831283530C2
:10007800AA002A08F50033308131E321803140019C
:100088003408803AAA0080302A02031D4D28013026
:100098003302031C5028512855284001B101B10AE8
:1000A80057284001B1013608803AAA0080302A0258
:1000B800031D602801303502031C63286428682862
:1000C8004001B201B20A6A284001B2010030F200D0
:1000D800F3008231D72280314001AA002A08AD00FE
:1000E80000308D180130F20000300D190130F30096
:1000F8003108AA002A08F4003208AB002B08F500E2
:100108000D0801398231272280314001AC002C08CA
:10011800AE003408A6003308A5008231B122803130
:100128004001AA002A08AF003608A6003508A50035
:1001380082318B2280314001AA002A08B0002D307C
:100148008231642280314001B70103304001AB00A5
:100158000830AA007730890BAF28AA0BAF28AB0B61
:10016800AF28312880312128F5007535F300730850
:10017800FA000530F4000F30F300F130890BC22883
:10018800F30BC228F40BC22800008331A12380316D
:100198007A08833186238031193083318623803170
:1001A800073083318623803183319B23803183312B
:1001B800A12380317A088331862380316B308331E3
:1001C80086238031013083318623803183319B231C
:1001D80080318331A12380317A08833186238031AD
:1001E8001A30833186238031003083318623803171
:1001F80083319B2380318331A12380317A08833175
:10020800862380311B30833186238031003083314F
:1002180086238031003083318623803183319B23CC
:1002280080318331A12380317A088331862380315C
:100238003830833186238031003083318623803102
:1002480083319B23803108004001A201F71F2D292B
:100258002E293529F609F709F60A0319F70AA20122
:10026800A20AF91F382939294229F809F909F80A8F
:100278000319F90A0130A0002008A206A301A4016D
:1002880076087704031949294A297929A101A10A7D
:1002980056290130F635F70D890B4E290130A0009B
:1002A8002008A107F71F59295A294D290130A335DC
:1002B800A40D890B5B2977087902031D6529760847
:1002C8007802031C682969296E297608F8027708DC
:1002D800F93B23140130F736F60C890B6F290130EE
:1002E800A102031D782979295A29220803197D2991
:1002F8007E298329A309A409A30A0319A40A2408A7
:10030800F7002308F600080040019601970118300D
:10031800980099019A0130309100F0309200BF3076
:10032800930094010730950030307E01B800F0301A
:10033800C3006730CE00D9010730E400B901C40119
:10034800CF01DA01E501BA01C501D001DB01E601FF
:10035800FF30BB00FF30C600FF30D100FF30DC00AB
:100368000730E700FF30BC00FF30C700FF30D20085
:10037800FF30DD000F30E80017307D01CB00103072
:1003880092000D30930010307E01A60013307D01DD
:10039800C50014307E01A30014307D01C60015305D
:1003A8007E01A400BD01BE01BF01C801C901CA0187
:1003B800D301D401D501E901EA01EB0108004001AC
:1003C800A2008331A12381317A08833186238131C8
:1003D8003B308331862381318331A12381317A08EF
:1003E800013E833186238131003083310C238131F2
:1003F800F60076084001A100003083310C238131DA
:10040800F60076084001A000003083310C238131CA
:10041800F60076084001A300013083310C238131B6
:1004280083319B23813140012208860087012008FF
:10043800C03F2108C13F7508860087012308C03FD7
:100448002308C13F0800F700F801770803192D2A8F
:100458002E2A342A7808203EF6007608F800492A21
:1004680072080319382A392A3F2A7808403EF600CC
:100478007608F800492A73080319432A442A492AA6
:100488007808803EF6007608F8007403031D4D2AAC
:100498004E2A532A7808103EF6007608F8007503AD
:1004A800031D572A582A5D2A7808083EF600760860
:1004B800F8007808013EF6007608F8007808080089
:1004C800F400F501F60174088600870101088331FC
:1004D8007C2382310130F3007308F4073430F300D1
:1004E800F230890B752AF30B752A0130F5070030B5
:1004F800F63D7608803AF30080307302031D862AA1
:1005080004307502031C892A8A2A672A08000030E9
:10051800F6000230F70040012608F3002508F20033
:100528008231F22282317308F9007208F8008131B1
:100538002821823176084001A7000130A735FF3E07
:10054800031DA22A2735A8002808A9002908033E68
:10055800A7002708A900290808000030F600023083
:10056800F70040012608F3002508F2008231F22244
:1005780082317308F9007208F8008131282182312C
:1005880076084001A7000130A735FF3E031DC82AA1
:100598002735A8002808A9002908023EA70027082F
:1005A800A900290808007308F5007208F4000A3049
:1005B800F536F40C890BDC2A7408F6000130F635A0
:1005C800FF3E031DE32A7635F7007708F800780820
:1005D800BC39F4007408F800780808007308803AF9
:1005E800F40080307402031DFB2A013072020318E4
:1005F800FE2AFF2A0B2B7209F4007309F500F40A8E
:100608000319F50A7408F2007508F3000B2B0800AB
:10061800F3004301911583318E23833143010C0884
:10062800F2007208F4000F10730C031C91120318E7
:100638009116111683318E238331740808004134D2
:1006480058343A342034253464340934203441345D
:1006580059343A342534643420340D340A3400349F
:1006680010307E01A600193042019B009C019F11A9
:100678001E111F129D171E121D169E164E01991649
:1006880008008331642383318131882183318331A8
:100698003423833183315523833183319523833147
:1006A8000800803043018F000830900091019201CA
:1006B8009F308D00400193151316430190160800D2
:1006C800613051018D0070308E008F0140309100F3
:1006D80006309300900192010800F000AA307006DD
:1006E800031D772B782B7A2B01307B2B00300800E9
:1006F800F2004E010F1E812B822B7D2B72084201C6
:100708009A000800F200720843018C0083318E239E
:10071800833108004E010F1C922B932B8E2B0F1048
:1007280008004E01191299168B170B170800430180
:10073800111583318E23833108004301111483314D
:060748008E23833108003E
:020000040001F9
:08000000FF3FFF3FFF3FFF3F00
:0A000E008C3FFF3F9F3FFF3FFF3F85
:00000001FF
