:040000008031AC2877
:100008007E1480314E018F1E0A280B283F2842019A
:100018001908F4007408F7003F287708F400023044
:10002800F436890B14287408F50075084001C900D6
:1000380056287708F40074084001C8005628770845
:10004800F4000230F436890B26287408F500750888
:100058004001C70056287708F4000230F436890BAF
:1000680032287408F50075084001C6000130F40014
:100078007408C500562877080339F400F501750897
:10008800003A0319482856287408003A0319112819
:10009800013A03191D28033A03192328013A0319C1
:1000A8002F2856284E01121C5A285B28AA281210FD
:1000B80084314B24803170037104031D6428652842
:1000C80079288431712480317108803AF4008130B4
:1000D8007402031D7128F5307002031C74287528FA
:1000E800792884316B248031AA2884314B248031CB
:1000F80070087104031D8128822893288431712493
:1001080080317108803AF4007E307402031D8E2815
:100118000C30700203189128922893287528400102
:10012800190EF400740C0139F4000130F406F40ED1
:10013800F40D19087406DF39740699008331DF233A
:100148008031013046018D0019308C007E10090085
:100158008031AE28843188248031FB002A30840025
:100168008430850037308600003087000C308431B9
:1001780053248031F601F701F801F901FA01C301AE
:10018800C401C501C601C701C801C901CA01CB0123
:100198007E1040018231032A4001AC002903031D6F
:1001A800D628D728DC289710171517129716E02895
:1001B80097141711171697122708AA00AB012A08D7
:1001C800A0002B08A1006430A2000030A3008331F6
:1001D8006B23803140012108C2002008C100270894
:1001E800AA00AB012A08A0002B08A1006430A200D5
:1001F8000030A30083316B23803140012108C00007
:100208002008BF002803031D0A290B291F292C08D1
:10021800AA00AB012A08A0002B08A1006430A200A4
:100228000030A30083316B23803140012008BF07D1
:100238002108C03D32292C08AA00AB012A08A000D9
:100248002B08A1006430A2000030A30083316B2387
:10025800803140012008C1072108C23D1030420208
:10026800003003194102031C3A293B293F29FF307A
:10027800C1000F30C200003042026430031941024D
:100288000318472948294C296430C1000030C200AE
:1002980010304002003003193F02031C542955292D
:1002A8005929FF30BF000F30C000003040026430D1
:1002B80003193F0203186129622966296430BF00C7
:1002C8000030C0000030A100A2004208A40041088C
:1002D800A300043083310523803100304001A100A0
:1002E800A2004008A4003F08A3000530833105237D
:1002F8008031080040012D1E822983298629CB01DF
:10030800CB0A8729CB01AD1D8A298B298E29CA01E1
:10031800CA0A8F29CA01AD1E92299329A4292F0838
:10032800B0003008A7004B08B1003108A8004A08FF
:10033800B2003208A9002E088031D0208131022A6B
:100348002D1FA729A829D2294B08B0003008A000E2
:100358002E088331A223813100304001A100A20080
:100368003E08A4003D08A3000030833105238131F5
:1003780040014B08B0003008A0002E0883318B23C1
:10038800813100304001A100A2003C08A4003B08D4
:10039800A3000130833105238131022AAD1FD529FD
:1003A800D629022A4B03031DDA29DB29EF290B3052
:1003B8002E02031CE029E129EF2901308231BE22F7
:1003C800813134304001B000F130890BE929B00B9C
:1003D800E9290032022A4B08031DF329F429FF29D1
:1003E8000B302E02031CF929FA29FF29003082312B
:1003F800BE228131E52984315924813108008331B5
:10040800F023823180304001B3003308A1008230EC
:1004180083313B2382318331B92382314001B601D4
:10042800B60A40010C1C192A1A2A3E2A3603031D53
:100438001E2A1F2A242A8431772482314001B601DA
:100448004503031D282A292A152AC5014808B3008F
:100458003308AD004708B4003408AE004608B500BC
:100468003508AF00490881317E21823184317724F3
:100478008231152A01308231BE2282311530400185
:10048800B4004B30B300BE30890B482AB30B482A5E
:10049800B40B482A000000308231BE228231153068
:1004A8004001B4004B30B300BE30890B592AB30B5E
:1004B800592AB40B592A0000152A8031AC2840016A
:1004C800960197011830980099019A0131309100EE
:1004D800C1309200BF30930094010730950030304E
:1004E8007E01B800F030C3006730CE00D901073074
:1004F800E400B901C401CF01DA01E501BA01C5017F
:10050800D001DB01E601FF30BB00FF30C600FF3041
:10051800D100FF30DC000730E700FF30BC00FF30BF
:10052800C700FF30D200FF30DD000F30E800173081
:100538007D01CB00103092000D30930010307E0109
:10054800A60013307D01C50014307E01A3001430CD
:100558007D01C60015307E01A400BD01BE01BF01AA
:10056800C801C901CA01D301D401D501E901EA01D1
:10057800EB0108004001A1002108A0002008FA00B2
:100588002103031DC82AC92AE82A4408803AA00082
:1005980081302002031DD22AF53043020318D52AE0
:1005A800D62AE22A84317F2482317A0C4001031C46
:1005B80019120318191644010E14042B44010E10C5
:1005C800843182248231042B4408803AA0007E3092
:1005D8002002031DF12A0C304302031CF42AF52AD9
:1005E800012B84317F2482317A0C4001031C1912BB
:1005F8000318191644010E14042B44010E10E42AA2
:1006080008004001A60010302602031C0C2B0D2BFD
:100618000E2B3A2B84316524833140014C088431F8
:100628004224833140012608A5000130A535FF3E4C
:10063800031D1A2B2535063E84314224833140019F
:100648002108843142248331400122088431422424
:100658008331400123088431422483314001240836
:1006680084314224833184315F248331080040017E
:10067800A3002108A2002208CC009211971184310E
:100688006524833140014C08843142248331FE3093
:100698008431422483314001230884314224833148
:1006A80084315F24833184316524833140014C08CF
:1006B8008431422483310030843142248331213013
:1006C80084314224833184315F248331080040011E
:1006D800A401A501201C712B722B762B2208A407DC
:1006E8002308A53D0130A235A30D890B772B0130D6
:1006F800A136A00C890B7C2B20082104031D852B17
:10070800862B6E2B2508A1002408A00008004001B4
:10071800A3002003031D912B922B9A2B2308A100E1
:10072800A2012108BB072208BC3DA12B2308A10078
:10073800A2012108BB022208BC3B08004001A3001B
:100748002003031DA82BA92BB12B2308A100A2016C
:100758002108BD072208BE3DB82B2308A100A2012D
:100768002108BD022208BE3B08004E0112104401B8
:100778008E160E168E108F138B3046018E000130A8
:10078800440191008B170B174E011C144001C30143
:10079800C401080010307E01A600193042019B00F8
:1007A8009C019F111E111F129D171E121D169E16C9
:1007B8004E01991608007A03031DE32BE42BEA2B5C
:1007C80001304001C3070030C43DEF2BFF3040012A
:1007D800C307FF30C43D080084311D2483318231B2
:1007E800632283318331CE238331843100248331E2
:1007F80084317C2483310800803043018F00083025
:100808009000910192019F308D00400193151316BD
:10081800430190160800162C4301901F142C152C28
:10082800162C152C4E010F1C1A2C1B2C102C0F10DB
:100838000800613051018D0070308E008F0140300A
:100848009100063093009001920108002C34013485
:100858002C3401342C3401342C3401346434003405
:10086800643400344001A0004E010F1E3C2C3D2C86
:10087800382C4001200842019A0008004001A000DD
:10088800200843018C0084310F24843108007A0841
:10089800F200F3017208F0007308F1000800FE008E
:1008A80012001E00FE0B542C003444010E1084313B
:1008B8008224843108004301111584310F248431C6
:1008C80008004301111484310F24843108004401C5
:1008D8000E10843185248431080040014408F10059
:1008E8004308F0000800AA30843136248431080017
:1008F8008B170B1708004001911408004001911054
:0A09080008004001911008000834B7
:020000040001F9
:08000000FF3FFF3FFF3FFF3F00
:0A000E008C3FFF3F9F3FFF3FFF3F85
:00000001FF
