:040000008031132810
:100008007E1480310C2842011908F0007008F500B0
:100018004E018F1A1028112807287E1009008031F8
:100028001528813185218031F700F501F6017E1010
:10003800400181315F2940019601970118309800ED
:1000480099019A0130309100E1309200BF3093005D
:1000580094010730950030307E01B800F030C300BD
:100068006730CE00D9010730E400B901C401CF01DF
:10007800DA01E501BA01C501D001DB01E601FF3073
:10008800BB00FF30C600FF30D100FF30DC00073076
:10009800E700FF30BC00FF30C700FF30D200FF3060
:1000A800DD000F30E80017307D01CB0010309200E2
:1000B8000D30930010307E01A60013307D01C5007D
:1000C80014307E01A30014307D01C60015307E0176
:1000D800A400BD01BE01BF01C801C901CA01D30105
:1000E800D401D501E901EA01EB010800F400F41C90
:1000F8007E287F28A928813182218031741F852894
:1001080086289328F41F89288A288F280030803170
:10011800C7208031932801308031C7208031741E78
:1001280096289728A528F41E9A289B28A0280230EC
:100138008031C7208031C62803308031C720803104
:10014800C628813179218031C628741DAC28AD2894
:10015800C228813179218031741EB328B428C62879
:10016800F41EB728B828BD280030813151218031CC
:10017800C6280130813151218031C6288131822140
:100188008031A5280800F300F828F430F100710840
:10019800400197051430F100710897040E29EA30E0
:1001A800F1007108400197050A30F10071089704C1
:1001B8000E29F230F1007108400197051230F10064
:1001C800710897040E29EC30F10071084001970579
:1001D8000C30F100710897040E29E030F100710825
:1001E8004001970517080E297308F100F2017208FB
:1001F800003A03190029F1287108003A0319C9289F
:10020800013A0319D328033A0319DD28013A0319DF
:10021800E728F12808004E01121044018E160E1628
:100228008E108F138B3046018E00013044019100EF
:100238008B170B174E011C14080010307E01A60006
:10024800193042019B009C019F111E111F129D171E
:100258001E121D169E164E019916080081316C213A
:10026800813180311F2081318131212181318131DA
:100278004221813181317F21813108008030430161
:100288008F0008309000910192019F308D0040014D
:1002980093151316430190160800F10044010E143B
:1002A8007103031D582959295C29400119165E2933
:1002B80040011912080081313221813181310F2129
:1002C8008131750880317A20813165298031132880
:1002D800613051018D0070308E008F0140309100E7
:1002E80006309300900192010800E130F100710896
:1002F8004001970508008B170B17080044010E10E2
:0403080008002C3489
:020000040001F9
:0A000E008C3FFF3F9F3FFF3FFF3F85
:00000001FF
