:0400000080317328B0
:100008007E1480310C2842011908F0007008FA00AB
:100018004E018F1A10281128072840287A08F00066
:100028000230F036890B15287008F100710841017B
:10003800D50057287A08F00070084101D4005728E5
:100048007A08F0000230F036890B27287008F10092
:1000580071084101D30057287A08F0000230F036C1
:10006800890B33287008F10071084101D200013072
:10007800F0007008D10057287A080339F000F10120
:100088007108003A0319492857287008003A0319DB
:100098001228013A03191E28033A03192428013AA1
:1000A8000319302857284E01121C5B285C28712838
:1000B80012104001190EF000700C0139F0000130E7
:1000C800F006F00EF00D19087006DF397006990079
:1000D800013046018D0034308C007E1009008031DB
:1000E8007528EB3084008E308500D73086000030CC
:1000F80087000D308E31AC268031FA01FB01C93002
:100108008400003085000E308E31A62680312030E4
:1001180084000130850020308E31A62680317E1083
:1001280040018431D02C4001C5003A08CE003B087C
:10013800CF003C08D0003D08D1003E08D2003F085F
:10014800D3004008D4004108D5004E308600003066
:100158008700473FC200C21BB228B4280130B52827
:1001680000304001C300C4014308CC004408CD005E
:100178004C084D040319C128C228E028CE09CF092C
:10018800D009D109D209D309D409D509CE0A031D4A
:10019800E028CF0A031DE028D00A031DE028D10A71
:1001A800031DE028D20A031DE028D30A031DE02816
:1001B800D40A031DE028D50A4101CE1BE428E5280E
:1001C800E928FD30CF05FF30D0054E08803A4001C0
:1001D800C20080304202031DF428013041014D0263
:1001E8000318F728F828FE2801304001C80000301D
:1001F800C900062941014E084001C90041014D08C6
:100208004001C80041014C084001CB0041014B08A6
:100218004001CA004C084D04031D1329142919294B
:1002280041014F1D182919291E29FF304001CA070D
:10023800FF30CB3D1F304001D6000030D7004201CF
:10024800BF018F29FF304001D607FF30D73D0A3064
:10025800A000A101A201A301A401A501A601A70173
:100268004E08A8004F08A9005008AA005108AB0082
:100278005208AC005308AD005408AE005508AF0052
:1002880083310B23803140012108F6002008F50056
:100298008F31CC2780317508303E4001C2005608A6
:1002A800203E86000130870042088100FF30C807E1
:1002B800FF30C93DFF30CA07FF30CB3D0A30A000F0
:1002C800A101A201A301A401A501A601A7014E084D
:1002D800A8004F08A9005008AA005108AB0052080E
:1002E800AC005308AD005408AE005508AF00823189
:1002F8000722803140012008CE002108CF002208C3
:10030800D0002308D1002408D2002508D3002608ED
:10031800D4002708D50040015708803AC200803031
:100328004202031D992901305602031C9C299D296C
:10033800CA2940014E084F04500451045204530482
:1003480054045504031DA929AA2926294908803AD5
:10035800C20080304202031DB3290130480203184D
:10036800B629B729262940014B08803AC2008030B7
:100378004202031DC12901304A02031CC429C529B0
:10038800CA294101CF18C929CA29262940014C0880
:100398004D04031DD029D129D62941014F1DD52946
:1003A800D629F329FF304001D607FF30D73D4C0846
:1003B8004D04031DE029E129E6292B30C600003051
:1003C800C700EA292D30C6000030C7004608C20021
:1003D8005608203E8600013087004208810040010F
:1003E8005608203EC2004208A9004B08AB004A0844
:1003F800AA00450886317B26803140012A08BB00C7
:100408002908BA0008004001B101203086000030F8
:100418008700473FF200F21F122A132A352A4001AB
:10042800A009A109A209A309A409A509A609A70960
:10043800A00A031D322AA10A031D322AA20A031D9B
:10044800322AA30A031D322AA40A031D322AA50A46
:10045800031D322AA60A031D322AA70A4001B10148
:10046800B10A2830860000308700473FF200F21FAB
:100478003E2A3F2A632A4001A809A909AA09AB090B
:10048800AC09AD09AE09AF09A80A031D5E2AA90A7D
:10049800031D5E2AAA0A031D5E2AAB0A031D5E2AF3
:1004A800AC0A031D5E2AAD0A031D5E2AAE0A031DAF
:1004B8005E2AAF0A0130F20072084001B1063230FC
:1004C8008600003087000830F20000301E00F20B72
:1004D8006A2A400120082104220423042404250454
:1004E800260427040319792A7A2AD62AB001B00AE1
:1004F800892AA035A10DA20DA30DA40DA50DA60D49
:10050800A70D0130F2007208B007A71F8C2A8D2AA8
:100518007D2AB235B30DB40DB50DB60DB70DB80DB6
:10052800B90D27082F02031DB32A26082E02031D22
:10053800B32A25082D02031DB32A24082C02031D03
:10054800B32A23082B02031DB32A22082A02031DFB
:10055800B32A21082902031DB32A20082802031CF4
:10056800B62AB72AC82A2008A8022108A93B2208C7
:10057800AA3B2308AB3B2408AC3B2508AD3B260827
:10058800AE3B2708AF3B3214A736A60CA50CA40C2B
:10059800A30CA20CA10CA00C0130B002031DD52A9B
:1005A800D62A8D2A31080319DA2ADB2AF92AB20950
:1005B800B309B409B509B609B709B809B909B20A3E
:1005C800031DF92AB30A031DF92AB40A031DF92ADF
:1005D800B50A031DF92AB60A031DF92AB70A031D2D
:1005E800F92AB80A031DF92AB90A40013208A000FD
:1005F8003308A1003408A2003508A3003608A40077
:100608003708A5003808A6003908A7000800F40133
:100618002830860000308700473FF200F21F152B74
:10062800162B372B4001A809A909AA09AB09AC095F
:10063800AD09AE09AF09A80A031D352BA90A031D88
:10064800352BAA0A031D352BAB0A031D352BAC0A23
:10065800031D352BAD0A031D352BAE0A031D352BA3
:10066800AF0AF401F40A2030860000308700473FC3
:10067800F200F21F402B412B602B4001A009A10979
:10068800A209A309A409A509A609A709A00A031D87
:10069800602BA10A031D602BA20A031D602BA30A6D
:1006A800031D602BA40A031D602BA50A031D602BE4
:1006B800A60A031D602BA70A400120082104220472
:1006C8002304240425042604270403196C2B6D2B0A
:1006D800C02BF301F30A7C2BA035A10DA20DA30DAD
:1006E800A40DA50DA60DA70D0130F2007208F307A1
:1006F800A71F7F2B802B702B27082F02031D9E2BF3
:1007080026082E02031D9E2B25082D02031D9E2B55
:1007180024082C02031D9E2B23082B02031D9E2B4D
:1007280022082A02031D9E2B21082902031D9E2B45
:1007380020082802031CA12BA22BB22B2008A802F8
:100748002108A93B2208AA3B2308AB3B2408AC3B61
:100758002508AD3B2608AE3B2708AF3BA736A60CBD
:10076800A50CA40CA30CA20CA10CA00C0130F30244
:10077800031DBF2BC02B802B74080319C42BC52B5A
:10078800E32BA809A909AA09AB09AC09AD09AE0967
:10079800AF09A80A031DE32BA90A031DE32BAA0A24
:1007A800031DE32BAB0A031DE32BAC0A031DE32B4C
:1007B800AD0A031DE32BAE0A031DE32BAF0A40016C
:1007C8002808A0002908A1002A08A2002B08A300D5
:1007D8002C08A4002D08A5002E08A6002F08A700A5
:1007E80008004001E700580886008701403FDA000A
:1007F800413FDB005A0884005B0885001200253A57
:10080800031D072C082CAC2C5808860087010130E2
:10081800810741310318810A4101CB01CC01CF0185
:10082800D001FF30CD00FF30CE00400158088600CF
:100838008701403FDA00413FDB005A0884005B082B
:1008480085001200643A03192A2C2B2C3C2C5808DA
:1008580086008701403FDA00413FDB005A088400E8
:100868005B0885001200693A031D3B2C3C2C772C51
:100878005808860087010130810741310318810A31
:100888005908860087010108840085010230810724
:10089800003FDA00013FDB005A08DF005B08E00098
:1008A800890D893B8909E100E200E300E400E500E5
:1008B800E6005F08BA006008BB006108BC00620877
:1008C800BD006308BE006408BF006508C000660874
:1008D800C100670880319720833140013B08D90067
:1008E8003A08D800CF2C580886008701403FDA0024
:1008F800413FDB005A0884005B0885001200253A56
:10090800031D872C882CA12C5808860087010130EC
:10091800810741310318810A2530F3000030F400C3
:100928006708DA005A08F5008631D4268331013089
:100938004001D8000030D900CF2C58088600870124
:100948000130810741310318810AD801D901CF2C20
:10095800580886008701403FDA00413FDB005A080B
:1009680084005B0885000008DC00DD015C08F300FA
:100978005D08F4006708DE005E08F5008631D426BD
:1009880083314001580886008701013081074131D1
:100998000318810A9B2C08002A304101AE002E085A
:1009A800C6008F31152784318F31362784314E3078
:1009B80085319C258431F801F80A013087315627A2
:1009C80084310D30F8009030F9008731D627843112
:1009D800F801F80A02308731562784312030F800B0
:1009E8009030F9008731D627843166304101AF0055
:1009F8007630AE00C130890BFF2CAE0BFF2CAF0B4D
:100A0800FF2C1D304101A0009030A1002A30A20027
:100A18000030A3008F319B2784314101510803190D
:100A2800162D172D112DD101F801F80A0130873143
:100A38005627843118304101A0009030A100540895
:100A4800AE00AF012E08A2002F08A300B2308731F4
:100A5800AE278431B230F8000030F9008731D6274C
:100A68008431F801F80A0230873156278431003082
:100A78004101A0009030A1005308AE00AF012E083C
:100A8800A2002F08A3005208B000B1013008A4004A
:100A98003108A500B2308731AE278431B230F80072
:100AA8000030F9008731D6278431752D4808AE000B
:100AB8002E08F40047088E31C42684318A2D480850
:100AC800AE002E08F50047088E31D12684318A2DD4
:100AD8004808AE002E08F50047088F31B227843148
:100AE8008A2D41015408E039AE00AF012F08003AC1
:100AF80003197F2D8A2D2E08203A03195A2D603AA2
:100B08000319632DC03A03196C2D8A2D1D3041013C
:100B1800A0009030A1004608AE00AF012E08A20048
:100B28002F08A3008F319B278431112D8031732822
:100B38004001A0002008F80078084101E4000030D6
:100B48008F31482785319C30F800D730890BAA2D82
:100B5800F80BAA2D000003308F31702785311A3029
:100B6800F800F830890BB62DF80BB62D003203309B
:100B78008F31702785311A30F800F830890BC22D73
:100B8800F80BC22D003203308F31702785311A30AF
:100B9800F800F830890BCE2DF80BCE2D003202303C
:100BA8008F31702785311A30F800F830890BDA2D2B
:100BB800F80BDA2D003228308F317027853102305A
:100BC800F9000430F800BA30890BE82DF80BE82D4D
:100BD800F90BE82D00320C308F3170278531023047
:100BE800F9000430F800BA30890BF82DF80BF82D0D
:100BF800F90BF82D003201308F3170278531023022
:100C0800F9000430F800BA30890B082EF80B082ECA
:100C1800F90B082E003206308F31702785310230EB
:100C2800F9000430F800BA30890B182EF80B182E8A
:100C3800F90B182E00320800400196019701183070
:100C4800980099019A0130309100E1309200BF304C
:100C5800930094010730950030307E01B800F030E1
:100C6800C3006730CE00D9010730E400B901C401E0
:100C7800CF01DA01E501BA01C501D001DB01E601C6
:100C8800FF30BB00FF30C600FF30D100FF30DC0072
:100C98000730E700FF30BC00FF30C700FF30D2004C
:100CA800FF30DD000F30E80017307D01CB00103039
:100CB80092000D30930010307E01A60013307D01A4
:100CC800C50014307E01A30014307D01C600153024
:100CD8007E01A400BD01BE01BF01C801C901CA014E
:100CE800D301D401D501E901EA01EB010800400173
:100CF800B10041014F1C812E822E8B2E40013108FC
:100D0800AC002C08F6002908873185278631400178
:100D1800AB1B8F2E902E952E2B08B0002A08AF0003
:100D2800972EAF01B001AD01AE01AB2E2030F3001C
:100D38000030F40040013108AC002C08F500863181
:100D4800D426863101304001AD070030AE3D2E0873
:100D5800803AAC003008803A2C02031DB52E2F08CB
:100D68002D02031CB82EB92E9A2E41014F18BD2E04
:100D7800BE2EC72E40013108AC002C08F600290809
:100D8800873185278631400129088F31E62786314A
:100D980040012F087207A9003008733DAA00080017
:100DA80075080319D82ED92EDE2E7508031DDD2EE1
:100DB800DE2EE32E73088731F5278631242F750838
:100DC800033E86008701160001040319EC2EED2E60
:100DD8000B2F7508033E86008701403F4001A000A5
:100DE800413FA100750A86008701403FA200413FAC
:100DF800A3002308803AA4002108803A2402031D96
:100E0800072F2008220203180A2F0B2F242F7308FC
:100E18004001A000750886008701750A84008501D5
:100E280000080107A1002108860087012008810029
:100E3800750A860087010130810741310318810A4C
:100E480008004001ED006908EF006808EE00410164
:100E5800C901CA01432F6E30EB006B08D8006A083D
:100E6800EC006C08D9006D088331F5238731400107
:100E780058084101C907400159084101CA3D4001CC
:100E88006E0884006F0885001200031D4C2F4D2F3B
:100E98002F2F41014A084001E9004101490840015A
:100EA800E8000800F900702F7808BF3E8F317027DE
:100EB8008731842F7808933E8F3170278731842FAC
:100EC8007808D33E8F3170278731842F78087F3E8A
:100ED8008F3170278731842F79084001A000A10144
:100EE8002108003A0319792F6A2F2008023A0319BA
:100EF800582F013A03195E2F073A0319642F6A2FF6
:100F080008004001A800A601A7019D2F2508F700A9
:100F1800F8017708F3007808F4007608F9007908F2
:100F2800F5008631D426873101304001A60700300C
:100F3800A73D26082807F7007708860001308700B4
:100F48000108F8007808A5002508031DAC2FAD2F6F
:100F58008A2F08004101A800A230A6002608A70091
:100F68002808A6002608A900AA01AB01AC01AD011A
:100F780021084001E900410120084001E800A730AC
:100F88004101A60026084001EA00A930873125273B
:100F9800873141012A082807A6002608860087010C
:100FA800810108004001A101A201E92F7808210769
:100FB80084007908223D850000088F318527873114
:100FC80001304001A1070030A23D780821078400C4
:100FD8007908223D85001200031DF32FF42FDA2F24
:100FE8000800F2004E010F1EFA2FFB2FF62F720891
:080FF80042019A000800080004
:101D280044010E1008008B170B170800430111140B
:101D38008E31F8268E310800430111158E31F826B0
:101D48008E310800640080010131890BA72E003410
:101D5800FE0012001E00FE0BAD2E0034F2007208C9
:101D680043018C008E31F8268E310800EA30F300EA
:101D78007308400197050A30F300730897040800B8
:101D8800F6008E3194268E317408F5007508F2003D
:101D980076088E31BA268E3108007508F600760866
:101DA800F200DE30F3000030F40003308731FF2703
:101DB8008E310800613051018D0070308E008F0126
:101DC80040309100063093009001920108002C34B5
:101DD8000134643400346434003408342C3401345D
:101DE8002C3401342C340134FF2E4301901FFD2E76
:101DF800FE2EFF2EFE2E4E010F1C032F042FF92E50
:101E08000F100800803043018F00083090009101C6
:101E180092019F308D0040019315131643019016CF
:101E280008008E31DE268F31863120268F318F31A2
:101E380025278F318F3106278F318E3197268F31A5
:101E4800080010307E01A600193042019B009C0159
:101E58009F111E111F129D171E121D169E164E0150
:101E6800991608004E01121044018E160E168E1097
:101E78008F138B3046018E000130440191008B177F
:101E88000B174E011C140800F3008E319A268F316F
:101E9800410164088E31B2268F31730841015D0417
:101EA8008E31B2268F318E31A0268F310800F50091
:101EB80041015608F4007408F504750804388F3198
:101EC80048278F317508FB398F3148278F314230C9
:101ED800890B6C2F00320800F7004101D601770802
:101EE800F0398F315B278F317708F6000330F635EC
:101EF800FF3E031D7B2F7635F0398F315B278F31FD
:101F08000800F7004101D601D60A7708F0398F3169
:101F18005B278F317708F6000330F635FF3E031D47
:101F2800912F7635F0398F315B278F310800A23039
:101F38004101A4002408A50021084001E90041014D
:101F480020084001E800A5304101A4002408400110
:101F5800EA000030873125278F310800F70075081F
:101F6800F6007608F200E230F3000030F4000130A9
:101F78008731FF278F317708F6007608F200E030C6
:101F8800F3000030F40002308731FF278F3108005A
:101F98007608803AF70080307702031DD52F01308C
:101FA80075020318D82FD92FE52F7509F700760980
:101FB800F800F70A0319F80A7708F5007808F60018
:101FC800E52F0800F6007608F4007408F500F02FF5
:101FD8000130F4007408F60776088600013087009F
:101FE8000108031DF82FF92FEC2F75087602F2006F
:101FF800F301F21BF303080041346334633465349E
:102008006C343A3420342534643420342534643430
:102018000034483465346C346C346F3420344934BB
:10202800203461346D340034463469346E343A34C3
:10203800203425346434003452346F3462346F34BD
:0420480074340034B8
:020000040001F9
:08000000FF3FFF3FFF3FFF3F00
:0A000E008C3FFF3F9F3FFF3FFF3F85
:00000001FF
