:0400000080317228B1
:100008007E1480314E018F1E0A280B283F2842019A
:100018001908F0007008FA003F287A08F00002304A
:10002800F036890B14287008F10071084001BF00F0
:1000380056287A08F00070084001BE0056287A0851
:10004800F0000230F036890B26287008F10071089C
:100058004001BD0056287A08F0000230F036890BBE
:1000680032287008F10071084001BC000130F0002E
:100078007008BB0056287A080339F000F1017108AE
:10008800003A0319482856287008003A031911281D
:10009800013A03191D28033A03192328013A0319C1
:1000A8002F2856284E01121C5A285B287028121037
:1000B8004001190EF000700C0139F0000130F00613
:1000C800F00EF00D19087006DF397006990001303E
:1000D80046018D0034308C007E1009008031742870
:1000E800A4308400823085002030860000308700EC
:1000F8000D308231DA228031FA01FB01BA01BB01ED
:10010800BC01BD01BE01BF01C0017E1040018131AB
:1001180082297F3078054001AD00AE012D08AA077D
:100128002E08AB3D7F307805AD00AE012D08A8073D
:100138002E08A93D2B08803AAD0085302D02031DFD
:10014800A72815302A02031CAA28AB28B028143087
:100158004001AA000530AB0040012B08803AAD00F1
:1001680080302D02031DBA2864302A020318BD28E6
:10017800BE28C32864304001AA000030AB0040010B
:100188002908803AAD0085302D02031DCD28153091
:100198002802031CD028D128D62814304001A800F2
:1001A8000530A90040012908803AAD0080302D02B1
:1001B800031DE028643028020318E328E428E9280E
:1001C80064304001A8000030A9000030F300F400BA
:1001D80040012B08F6002A08F500003082312A2257
:1001E80080310030F300F40040012908F6002808A7
:1001F800F500013082312A22803140012A088231FB
:10020800C822803178084001AD0007300310AD1BCB
:100218000314AD0C890B0A292D0803191429152973
:100228001E29ED30AD002D0897052430AD002D08AE
:1002380097042629DB30AD002D0897051230AD0054
:100248002D0897040800400196019701183098007E
:1002580099019A0131309100C1309200BF3093006A
:1002680094010730950030307E01B800F030C300AB
:100278006730CE00D9010730E400B901C401CF01CD
:10028800DA01E501BA01C501D001DB01E601FF3061
:10029800BB00FF30C600FF30D100FF30DC00073064
:1002A800E700FF30BC00FF30C700FF30D200FF304E
:1002B800DD000F30E80017307D01CB0010309200D0
:1002C8000D30930010307E01A60013307D01C5006B
:1002D80014307E01A30014307D01C60015307E0164
:1002E800A400BD01BE01BF01C801C901CA01D301F3
:1002F800D401D501E901EA01EB0108008231772236
:10030800813108304001B6003608F300823081316F
:10031800FB2181318231542281314001B901B90A6E
:1003280040010C1C9829992994293903031D9D29FA
:100338009E29A3298231EC2281314001B9013B0376
:10034800031DA729A8299429BB013E08B600360831
:10035800AF003D08B7003708B0003C08B8003808BF
:10036800B1003F088131CC2181310B304001B70009
:100378002630B6005D30890BBF29B60BBF29B70BF5
:10038800BF2900328231EC228131942980317228D0
:1003980040012F08B2000230B235FF3E031DD029BC
:1003A800323580393007B3003308B4002F08B20063
:1003B8000230B235FF3E031DDD2932358039310761
:1003C800B3003308B5002F08B2000430B236890BE9
:1003D800EA293203031DF129F229FA293508B20066
:1003E8003208F800340880318D2081310800F5008A
:1003F8007308F40074084001C1009211971182310A
:10040800E6228131400141088231D2228131FE3019
:100418008231D222813175088231D22281318231F2
:10042800E02281318231E622813140014108823166
:10043800D222813100308231D22281312130823181
:10044800D22281318231E02281310800F700103058
:100458007702031C302A312A322A532A8231E622B3
:100468008231400141088231D22282310630823104
:10047800D222823173088231D222823174080F3934
:100488008231D222823175088231D22282317608B5
:100498000F398231D22282318231E0228231080042
:1004A8004E01121044018E160E168E108F138B30CB
:1004B80046018E000130440191008B170B174E0145
:1004C8001C14080010307E01A600193042019B0060
:1004D8009C019F111E111F129D171E121D169E169C
:1004E8004E01991608008231B122823181312721CB
:1004F8008231823166228231823187228231823191
:10050800F12282310800803043018F0008309000CA
:10051800910192019F308D004001931513164301FC
:10052800901608009D2A4301901F9B2A9C2A9D2A09
:100538009C2A4E010F1CA12AA22A972A0F100800F4
:100548002C3401342C3401342C3401342C3401344F
:10055800BC340234BC3402340834613051018D009B
:1005680070308E008F01403091000630930090016A
:1005780092010800F2004E010F1EC32AC42ABF2AA6
:10058800720842019A000800F2004E010F1ECD2A9F
:10059800CE2AC92A720842019A000800F20072089D
:1005A80043018C008231962282310800FE0012003D
:1005B8001E00FE0BDB2A00344301111582319622FE
:1005C80082310800430111148231962282310800D9
:1005D800AA308231BE22823108008B170B1708001F
:020000040001F9
:0A000E008C3FFF3F9F3FFF3FFF3F85
:00000001FF
