:100000008031AC282C3401347E1480314E018F1E97
:100010000A280B283F2842011908F4007408F80048
:100020003F287808F4000230F436890B142874084D
:10003000F50075084101C30056287808F4007408DB
:100040004101C20056287808F4000230F436890BCA
:1000500026287408F50075084101C1005628780863
:10006000F4000230F436890B32287408F500750864
:100070004101C0000130F4007408BF005628780820
:100080000339F400F5017508003A03194828562889
:100090007408003A03191128013A03191D28033A7C
:1000A00003192328013A03192F2856284E01121C40
:1000B0005A285B28AA2812108F310B278031700331
:1000C0007104031D6428652879288E31E726803164
:1000D0007108803AF40080307402031D71283330B7
:1000E0007002031C7428752879288E31ED26803122
:1000F000AA288F310B27803170087104031D8128D5
:10010000822893288E31E72680317108803AF400E6
:100110007F307402031D8E28CE30700203189128A0
:100120009228932875284001190EF400740C0139A7
:10013000F4000130F406F40EF40D19087406DF39EA
:10014000740699008F316C278031013046018D0093
:1001500034308C007E1009008031AE2880310220BE
:100160008031FA00803103208031FB001C30840094
:100170008F308500C6308600003087000B308F310D
:1001800005278031F601F701F801F901B630840046
:100190000030850010308E31FF2680312030840001
:1001A0000130850020308E31FF2680317E104001E5
:1001B0008631AD2E4001C8003B08CF003C08D0007E
:1001C0003D08D1003E08D2003F08D3004008D400CB
:1001D0004108D5004208D6004F3086000030870025
:1001E000473FC300C31BF528F7280130F82800302B
:1001F0004001C400C5014408CD004508CE004D08AB
:100200004E040319042905292329CF09D009D1094E
:10021000D209D309D409D509D609CF0A031D232948
:10022000D00A031D2329D10A031D2329D20A031D45
:100230002329D30A031D2329D40A031D2329D50A00
:10024000031D2329D60A4101BB1B272928292C2954
:10025000FD30F605FF30F7053B08803A4001C3004A
:1002600080304302031D3729013041013A0203184F
:100270003A293B29412901304001C9000030CA0018
:10028000492941013B084001CA0041013A084001A7
:10029000C900410139084001CC0041013808400142
:1002A000CB004D084E04031D562957295B29761DA6
:1002B0005A295B295F29FF30CB07FF30CC3D1F3027
:1002C000D7000030D8004201BF01CF29FF304001E4
:1002D000D707FF30D83D0A30A000A101A201A30139
:1002E000A401A501A601A7014F08A8005008A90074
:1002F0005108AA005208AB005308AC005408AD00E6
:100300005508AE005608AF008331482380314001C4
:100310002108B4002008B3008F31E4278031400168
:100320003308303EC3005708203E86000130870066
:1003300043088100FF30C907FF30CA3DFF30CB07BB
:10034000FF30CC3D0A30A000A101A201A301A4010D
:10035000A501A601A7014F08A8005008A90051084F
:10036000AA005208AB005308AC005408AD00550871
:10037000AE005608AF008231432280314001200890
:10038000CF002108D0002208D1002308D200240881
:10039000D3002508D4002608D5002708D600400140
:1003A0005808803AC30080304302031DD929013028
:1003B0005702031CDC29DD29092A40014F0850049B
:1003C000510452045304540455045604031DE929EE
:1003D000EA2966294A08803AC30080304302031D97
:1003E000F329013049020318F629F729662940014B
:1003F0004C08803AC30080304302031D012A0130BB
:100400004B02031C042A052A092AF618082A092A7D
:10041000662940014D084E04031D0F2A102A142A94
:10042000761D132A142A302AFF30D707FF30D83D13
:100430004D084E04031D1D2A1E2A232A2B30C600F8
:100440000030C700272A2D30C6000030C7004608FC
:10045000C3005708203E8600013087004308810012
:100460005708203EC3004308B1004C08B3004B08B6
:10047000B200480886311626803140013208BC009F
:100480003108BB0008004001B20120308600003076
:100490008700473FB000B01F4E2A4F2A712A400103
:1004A000A009A109A209A309A409A509A609A709E8
:1004B000A00A031D6E2AA10A031D6E2AA20A031DAB
:1004C0006E2AA30A031D6E2AA40A031D6E2AA50A1A
:1004D000031D6E2AA60A031D6E2AA70A4001B20157
:1004E000B20A2830860000308700473F4001B00044
:1004F000B01F7B2A7C2AA02A4001A809A909AA09C1
:10050000AB09AC09AD09AE09AF09A80A031D9B2AC6
:10051000A90A031D9B2AAA0A031D9B2AAB0A031DD5
:100520009B2AAC0A031D9B2AAD0A031D9B2AAE0A17
:10053000031D9B2AAF0A01304001B0003008B2060B
:10054000333086000030870008304001B0000030B2
:100550001E00B00BA82A200821042204230424042E
:100560002504260427040319B62AB72A132BB10140
:10057000B10AC62AA035A10DA20DA30DA40DA50D8B
:10058000A60DA70D0130B0003008B107A71FC92A7A
:10059000CA2ABA2AB335B40DB50DB60DB70DB80DCC
:1005A000B90DBA0D27082F02031DF02A26082E02C6
:1005B000031DF02A25082D02031DF02A24082C0211
:1005C000031DF02A23082B02031DF02A22082A0209
:1005D000031DF02A21082902031DF02A2008280201
:1005E000031CF32AF42A052B2008A8022108A93BA2
:1005F0002208AA3B2308AB3B2408AC3B2508AD3BB3
:100600002608AE3B2708AF3B3314A736A60CA50C33
:10061000A40CA30CA20CA10CA00C0130B102031D70
:10062000122B132BCA2A32080319172B182B362B1F
:10063000B309B409B509B609B709B809B909BA09BE
:10064000B30A031D362BB40A031D362BB50A031D4E
:10065000362BB60A031D362BB70A031D362BB80AF4
:10066000031D362BB90A031D362BBA0A4001330885
:10067000A0003408A1003508A2003608A3003708FE
:10068000A4003808A5003908A6003A08A700080009
:100690004001B2012830860000308700473FB0009B
:1006A000B01F532B542B762B4001A809A909AA0986
:1006B000AB09AC09AD09AE09AF09A80A031D732B3C
:1006C000A90A031D732BAA0A031D732BAB0A031D72
:1006D000732BAC0A031D732BAD0A031D732BAE0ADB
:1006E000031D732BAF0A4001B201B20A203086000D
:1006F00000308700473F4001B000B01F802B812BA6
:10070000A02B4001A009A109A209A309A409A509D8
:10071000A609A709A00A031DA02BA10A031DA02B4F
:10072000A20A031DA02BA30A031DA02BA40A031DCC
:10073000A02BA50A031DA02BA60A031DA02BA70A08
:100740004001200821042204230424042504260453
:1007500027040319AC2BAD2B002CB101B10ABC2B23
:10076000A035A10DA20DA30DA40DA50DA60DA70DDD
:100770000130B0003008B107A71FBF2BC02BB02B32
:1007800027082F02031DDE2B26082E02031DDE2B59
:1007900025082D02031DDE2B24082C02031DDE2B51
:1007A00023082B02031DDE2B22082A02031DDE2B49
:1007B00021082902031DDE2B20082802031CE12B3F
:1007C000E22BF22B2008A8022108A93B2208AA3B11
:1007D0002308AB3B2408AC3B2508AD3B2608AE3BC9
:1007E0002708AF3BA736A60CA50CA40CA30CA20CA3
:1007F000A10CA00C0130B102031DFF2B002CC02B5B
:1008000032080319042C052C232CA809A909AA09CC
:10081000AB09AC09AD09AE09AF09A80A031D232C29
:10082000A90A031D232CAA0A031D232CAB0A031DAE
:10083000232CAC0A031D232CAD0A031D232CAE0A66
:10084000031D232CAF0A40012808A0002908A1009D
:100850002A08A2002B08A3002C08A4002D08A5003C
:100860002E08A6002F08A70008004001E80059083C
:1008700086008701403FDB00413FDC005B088400CD
:100880005C0885001200253A031D472C482CEC2CEF
:100890005908860087010130810741310318810A18
:1008A0004101B801B901F601F701FF30BA00FF308C
:1008B000BB004001590886008701403FDB00413FF3
:1008C000DC005B0884005C0885001200643A0319B0
:1008D0006A2C6B2C7C2C590886008701403FDB007A
:1008E000413FDC005B0884005C0885001200693A27
:1008F000031D7B2C7C2CB72C590886008701013006
:10090000810741310318810A5A08860087010108CE
:100910008400850102308107003FDB00013FDC00DD
:100920005B08E0005C08E100890D893B8909E20071
:10093000E300E400E500E600E7006008BB006108B2
:10094000BC006208BD006308BE006408BF00650803
:10095000C0006608C1006708C20068088031DA205C
:10096000843140013C08DA003B08D9000F2D5908BA
:1009700086008701403FDB00413FDC005B088400CC
:100980005C0885001200253A031DC72CC82CE12CF9
:100990005908860087010130810741310318810A17
:1009A0002530A1000030A2006808DB005B08A3002E
:1009B00086316C26843101304001D9000030DA00E4
:1009C0000F2D590886008701013081074131031836
:1009D000810AD901DA010F2D590886008701403FAD
:1009E000DB00413FDC005B0884005C0885000008F8
:1009F000DD00DE015D08A1005E08A2006808DF00DE
:100A00005F08A30086316C268431400159088600B6
:100A100087010130810741310318810ADB2C08006E
:100A20007F30410127054001A000A1016430A200F0
:100A30000030A3008731D3278531400121084101CF
:100A4000CF00400120084101CE007F302705A800DB
:100A5000A9012808CC072908CD3D4F08803AA800F5
:100A600085302802031D362D15304E02031C392D0A
:100A70003A2D3F2D14304101CE000530CF00410109
:100A80004F08803AA80080302802031D492D6430A9
:100A90004E0203184C2D4D2D522D64304101CE00D5
:100AA0000030CF0041014D08803AA800853028026F
:100AB000031D5C2D15304C02031C5F2D602D652D30
:100AC00014304101CC000530CD0041014D08803A81
:100AD000A80080302802031D6F2D64304C020318DB
:100AE000722D732D782D64304101CC000030CD0083
:100AF00000304001A100A20041014F084001A400C4
:100B000041014E084001A300003087317B27853129
:100B100000304101A3009030A4004F08A6004E0809
:100B2000A5008F31B327853141012708A800073080
:100B30000310A81B0314A80C890B982D280803196F
:100B4000A22DA32DAF2DED30A80028084001970558
:100B500024304101A800280840019704BA2DDB3059
:100B6000A80028084001970512304101A800280874
:100B70004001970408004001960197011830980041
:100B800099019A0131309100C1309200BF30930039
:100B900094010730950030307E01B800F030C3007A
:100BA0006730CE00D9010730E400B901C401CF019C
:100BB000DA01E501BA01C501D001DB01E601FF3030
:100BC000BB00FF30C600FF30D100FF30DC00073033
:100BD000E700FF30BC00FF30C700FF30D200FF301D
:100BE000DD000F30E80017307D01CB00103092009F
:100BF0000D30930010307E01A60013307D01C5003A
:100C000014307E01A30014307D01C60015307E0132
:100C1000A400BD01BE01BF01C801C901CA01D301C1
:100C2000D401D501E901EA01EB0108004001B90056
:100C3000761C1B2E1C2E242E3908B4003408A90063
:100C400031088731AA2786314001B31B282E292E6F
:100C50002E2E3308B8003208B700302EB701B80185
:100C6000B501B601442E20304001A1000030A200A1
:100C70003908B4003408A30086316C26863101306F
:100C80004001B5070030B63D3608803AB400380858
:100C9000803A3402031D4E2E37083502031C512EB4
:100CA000522E332E7618552E562E5F2E40013908BF
:100CB000B4003408A90031088731AA2786314001E1
:100CC00031088F31C9278631400137082007B1002C
:100CD0003808213DB2000800400123080319712E95
:100CE000722E772E2308031D762E772E7C2E210858
:100CF0008F3133278631AC2E2308033E86008701CF
:100D0000160001040319852E862EA32E2308033E08
:100D100086008701403FA400413FA500230A8600CA
:100D20008701403FA600413FA7002708803AA8005E
:100D30002508803A2802031D9F2E24082602031846
:100D4000A22EA32EAC2E4001230A8600870101307B
:100D5000810741310318810A08008F315C278631F1
:100D600080304101B20032084001A1008230873159
:100D70001A2786318F318E2786314101B501B50A98
:100D800040010C1CC42EC52EC02EB5308F31A027BB
:100D9000863141013F03031DCE2ECF2EC02EBF0151
:100DA0004208B2003208AB004108B3003308AC007F
:100DB0004008B4003408AD00430887314C27863121
:100DC0008E31E2268631C02E8031AC284101A00050
:100DD00040016A084101A200400169084101A100E7
:100DE000B601B701092FA1304001EC006C08D90011
:100DF0006B08ED006D08DA004101200884313524CC
:100E00008631400159084101B60740015A084101A5
:100E1000B73D21088400220885001200031D112F10
:100E2000122FF32E37084001EA0041013608400135
:100E3000E90008004001A3002108A20022084101A6
:100E4000D1004001921197118E31F3268731410173
:100E500051088F3113278731FE308F3113278731A7
:100E6000400123088F31132787318E31F9268731CE
:100E70008E31F3268731410151088F311327873195
:100E800000308F311327873121308F31132787317D
:100E90008E31F9268731080041012B08AE0002305F
:100EA000AE35FF3E031D502F2E3580392C07AF0085
:100EB0002F08B0002B08AE000230AE35FF3E031DF8
:100EC0005D2F2E3580392D07AF002F08B1002B087C
:100ED000AE000430AE36890B6A2F2E03031D712F2E
:100EE000722F7A2F3108AE002E08A7003008853106
:100EF0001025873108004001A50010302502031C91
:100F0000822F832F842FA92F8E31F3268731410121
:100F100051088F311327873106308F3113278731DE
:100F2000400121088F3113278731400122080F39F2
:100F30008F3113278731400123088F3113278731E1
:100F4000400124080F398F31132787318E31F9265C
:100F5000873108004001B000AE01AF01C22F2D085B
:100F6000AA00AB012A08A1002B08A2002908AC00A6
:100F70002C08A30086316C26873101304001AE0772
:100F80000030AF3D2E083007AA002A088600013045
:100F900087000108AB002B08AD002D08031DD12FE1
:100FA000D22FAF2F08004001A401A501201CD92F8A
:100FB000DA2FDE2F2208A4072308A53D0130A23531
:100FC000A30D890BDF2F0130A136A00C890BE42F74
:100FD00020082104031DED2FEE2FD62F2508A10098
:100FE0002408A0000800613051018D0070308E008F
:100FF0008F0140309100063093009001920108006B
:101DB8004001911008008B170B170800AA308F31CB
:101DC80027278E31080041013D08F1003C08F0004A
:101DD800080044010E108E31DC268E3108004301C4
:101DE80011148F313F278E310800430111158F31AF
:101DF8003F278E310800640080010131890B002FD4
:101E08000034FE0012001E00FE0B062F0034790875
:101E1800F200F3017208F0007308F10008004001B5
:101E2800A000200843018C008F313F278F31080024
:101E38002C3401342C3401342C340134BC340234B5
:101E4800BC34023408344001A0004E010F1E2D2F6F
:101E58002E2F292F4001200842019A000800400136
:101E6800A0004E010F1E392F3A2F352F40012008B0
:101E780042019A000800462F4301901F442F452F26
:101E8800462F452F4E010F1C4A2F4B2F402F0F1066
:101E98000800803043018F000830900091019201C2
:101EA8009F308D00400193151316430190160800CA
:101EB8008731F3278F318531BB258F318F317D27CE
:101EC8008F318F314D278F318E31DF268F310800CA
:101ED8007903031D702F712F772F01304101BC0743
:101EE8000030BD3D7C2FFF304101BC07FF30BD3DB8
:101EF800080010307E01A600193042019B009C01A9
:101F08009F111E111F129D171E121D169E164E019F
:101F1800991608004E01121044018E160E168E10E6
:101F28008F138B3046018E000130440191008B17CE
:101F38000B174E011C1408004001A100210886005F
:101F480087010103031DA92FAA2FB22F8E31E22684
:101F58008F31400121088600870181010800A530E2
:101F68004001EE006E08EF00410124084001EA003C
:101F7800410123084001E9006F30EE006E08EB00D4
:101F880000308631E6268F3108004001A40024087D
:101F9800A2002208A300D42F0130A2002208A4071F
:101FA80024088600013087000108031DDC2FDD2F7F
:101FB800D02F23082402A000A101A01BA103080020
:101FC80040013408803AB50080303502031DEE2FF9
:101FD800013033020318F12FF22FFF2F400133098C
:101FE800B5003409B600B50A0319B60A3508B300B6
:101FF8003608B400FF2F080045344E3441343A34D3
:06200800253464340034AD
:020000040001F9
:08000000FF3FFF3FFF3FFF3F00
:0A000E008C3FFF3F9F3FFF3FFF3F85
:00000001FF
