:040000008031AB2878
:100008007E1480314E018F1E0A280B283F2842019A
:100018001908F4007408F6003F287608F400023046
:10002800F436890B14287408F50075084001BD00E2
:1000380056287608F40074084001BC005628760853
:10004800F4000230F436890B26287408F500750888
:100058004001BB0056287608F4000230F436890BBC
:1000680032287408F50075084001BA000130F40020
:100078007408B900562876080339F400F5017508A4
:10008800003A0319482856287408003A0319112819
:10009800013A03191D28033A03192328013A0319C1
:1000A8002F2856284E01121C5A285B28A9281210FE
:1000B8008531D825803170037104031D64286528B3
:1000C80079288531FE2580317108803AF400BA30EC
:1000D8007402031D712899307002031C7428752856
:1000E80079288531F8258031A9288531D8258031AE
:1000F80070087104031D8128822893288531FE2504
:1001080080317108803AF40045307402031D8E284E
:1001180068307002031891289228932875284001A6
:10012800190EF400740C0139F4000130F406F40ED1
:10013800F40D19087406DF397406990085317125A4
:10014800803146018D01F0308C007E10090080312D
:10015800AD28863115268031F90086311626803182
:10016800FA00BA30840085308500413086000030BE
:1001780087000B308531E0258031F601F701F80161
:10018800B601B701B801B901BA01BB01BC01BD0193
:10019800BE01BF01C0017E1040018331F32B400135
:1001A8002E1ED728D828DB28C001C00ADC28C001A9
:1001B800AE1DDF28E028E328BF01BF0AE428BF01FD
:1001C800AE1EE728E82812298531E625803103305C
:1001D80083319E238031053040013002031CF5280D
:1001E800F628FF283F08B1003108AA0030088531F9
:1001F80060258031962905302F02031C0429052922
:100208000E294008B1003108AA002F0885314F2572
:100218008031962985311025803196292E1F152980
:1002280016293F298531E625803185311025803111
:10023800823083319E2380310B3040012F02031C12
:10024800262927292F294008B1003108A7002F089F
:100258008231712280310B3040013002031C352974
:10026800362996293F08B1003108A70030088231A5
:10027800042280319629AE1F4229432990298531CD
:1002880010258031823083319E2380314001400324
:10029800031D4F29502964290B302F02031C5529AF
:1002A8005629642901308431462480313430400194
:1002B800B100F130890B5E29B10B5E2900327A2931
:1002C8004008031D6829692974290B302F02031C73
:1002D8006E296F29742900308431462480315A29C7
:1002E8008531E6258031853110258031400140086F
:1002F800B1003108A7002F088131972180310030E3
:100308004001A100A2004408A4004308A300023051
:1003180084318D24803196298531102580318531AD
:10032800E625803108004001AD002703031D9D2903
:100338009E29D129A901AA01C32901304001C10779
:100348000030C23D01304202F53003194102031C5E
:10035800AE29AF29B329F430C1000130C200003002
:10036800A100A2004208A4004108A3000230843181
:100378008D24813101304001A9070030AA3D2A08A7
:10038800803AA80080302802031DCC292D082902B4
:10039800031CCF29D029A129032AAB01AC01F629D6
:1003A80001304001C1020030C23B003042026430DB
:1003B800031941020318E129E229E6296430C10042
:1003C8000030C2000030A100A2004208A400410889
:1003D800A300023084318D24813101304001AB0704
:1003E8000030AC3D2C08803AA80080302802031D5C
:1003F800FF292D082B02031C022A032AD4290800EE
:100408004001AD002703031D0A2A0B2A3E2AA90131
:10041800AA01302A01304001C3070030C43D013031
:100428004402F53003194302031C1B2A1C2A202A04
:10043800F430C3000130C4000030A100A200440819
:10044800A4004308A300013084318D248231023096
:100458004001A9070030AA3D2A08803AA800803048
:100468002802031D392A2D082902031C3C2A3D2A8B
:100478000E2A702AAB01AC01632A01304001C30285
:100488000030C43B003044026430031943020318AF
:100498004E2A4F2A532A6430C3000030C40000306B
:1004A800A100A2004408A4004308A300013084313D
:1004B8008D24823102304001AB070030AC3D2C085E
:1004C800803AA80080302802031D6C2A2D082B02D0
:1004D800031C6F2A702A412A08004001AD00270337
:1004E800031D772A782AAB2AA901AA019D2A01307F
:1004F8004001C5070030C63D01304602F5300319FA
:100508004502031C882A892A8D2AF430C500013047
:10051800C6000030A100A2004608A4004508A300B8
:10052800003084318D24823102304001A907003027
:10053800AA3D2A08803AA80080302802031DA62A6E
:100548002D082902031CA92AAA2A7B2ADD2AAB0125
:10055800AC01D02A01304001C5020030C63B003052
:1005680046026430031945020318BB2ABC2AC02A74
:100578006430C5000030C6000030A100A200460863
:10058800A4004508A300003084318D248231023054
:100598004001AB070030AC3D2C08803AA800803001
:1005A8002802031DD92A2D082B02031CDC2ADD2A68
:1005B800AE2A08004001A9002908A700A8012708B9
:1005C800A0002808A1006430A2000030A3008431F4
:1005D800F024823140012108CA002008C9004A08D5
:1005E800C8004908C7000F304A02FF300319490202
:1005F800031CFF2A002B042BFF30C9000F30CA0050
:1006080003304A02E9300319490203180C2B0D2B59
:10061800112BE830C9000330CA000F304802FF3000
:1006280003194702031C192B1A2B1E2BFF30C70076
:100638000F30C80003304802E93003194702031895
:10064800262B272B2B2BE830C7000330C80000309F
:10065800A100A2004A08A4004908A300043084317C
:100668008D24823100304001A100A2004808A40076
:100678004708A300053084318D24823108004001E9
:10068800960197011830980099019A01313091002C
:10069800C1309200BF30930094010730950030308C
:1006A8007E01B800F030C3006730CE00D9010730B2
:1006B800E400B901C401CF01DA01E501BA01C501BD
:1006C800D001DB01E601FF30BB00FF30C600FF3080
:1006D800D100FF30DC000730E700FF30BC00FF30FE
:1006E800C700FF30D200FF30DD000F30E8001730C0
:1006F8007D01CB00103092000D30930010307E0148
:10070800A60013307D01C50014307E01A30014300B
:100718007D01C60015307E01A400BD01BE01BF01E8
:10072800C801C901CA01D301D401D501E901EA010F
:10073800EB0108004001A2008531F22583317B08D6
:100748008531CF25833100308531CF258331303055
:100758008531CF2583318531EC2583310630400141
:10076800A1003030890BB62BA10BB62B00008531C8
:10077800F22583317B088531CF258331FE308531E1
:10078800CF258331400122088531CF25833185313A
:10079800EC25833106304001A1003030890BD22B83
:1007A800A10BD22B00008531F22583317B088531DE
:1007B800CF25833100308531CF25833120308531F5
:1007C800CF2583318531EC25833106304001A100E6
:1007D8003030890BED2BA10BED2B00000800853183
:1007E8008225833180304001B2003208A100823076
:1007F8008431C22483318531292583314001B501F3
:10080800B50A15304001B3004B30B200BE30890B39
:100818000B2CB20B0B2CB30B0B2C000040010C1C47
:10082800162C172C412C3503031D1B2C1C2C272C94
:1008380086310426833186310426833186310426A5
:1008480083314001B5013903031D2B2C2C2C122CAC
:10085800B9013C08B2003208AE003B08B3003308C7
:10086800AF003A08B4003408B0003D088031D32006
:100878008331863104268331122CB501B50A122C36
:100888008031AB284001A1002108A0002008F80011
:100898002103031D502C512C702C3708803AA000DE
:1008A800BA302002031D5A2C9930360203185D2CE9
:1008B8005E2C6A2C86310C268431780C4001031C8E
:1008C80019120318191644010E148C2C44010E1029
:1008D80086310F2684318C2C3708803AA0004530A9
:1008E8002002031D792C68303602031C7C2C7D2CD9
:1008F800892C86310C268431780C4001031C19128E
:100908000318191644010E148C2C44010E106C2C7B
:1009180008004001A60010302602031C942C952CD8
:10092800962CC12C8531F22584317B088531CF2561
:10093800843140012608A5000130A535FF3E031D7E
:10094800A12C2535063E8531CF258431400121086B
:100958008531CF258431400122088531CF25843166
:10096800400123088531CF25843140012408853191
:10097800CF2584318531EC25843108004001A3005E
:100988002108A2002208FB00921197118531F22557
:1009980084317B088531CF258431FE308531CF25E0
:1009A8008431400123088531CF2584318531EC25F8
:1009B80084318531F22584317B088531CF25843116
:1009C80000308531CF25843121308531CF258431E0
:1009D8008531EC25843108004001A401A501201CC3
:1009E800F62CF72CFB2C2208A4072308A53D013080
:1009F800A235A30D890BFC2C0130A136A00C890B64
:100A0800012D20082104031D0A2D0B2DF32C250888
:100A1800A1002408A000080000304001A100A200A5
:100A28000130A3000030A400043084318D248531C6
:100A380000304001A100A2000130A3000030A40052
:100A4800053084318D24853108004E01121044018F
:100A58008E160E168E108F138B3046018E000130C5
:100A6800440191008B170B174E011C144001B6016D
:100A7800B701080010307E01A600193042019B0022
:100A88009C019F111E111F129D171E121D169E16E6
:100A98004E01991608004001AB002A03031D552D8D
:100AA800562D592D971417115B2D971017152B08D4
:100AB8008231DE22853108004001AB002A03031D84
:100AC800662D672D6A2D971417156C2D9710171121
:100AD8002B088231DE22853108007803031D752D2D
:100AE800762D7C2D01304001B6070030B73D812DB1
:100AF800FF304001B607FF30B73D08008531A1251A
:100B0800853183314323853185313E2585318531D2
:100B180092258531863109268531080080304301C8
:100B28008F0008309000910192019F308D004001A4
:100B380093151316430190160800613051018D007A
:100B480070308E008F014030910006309300900184
:100B5800920108004001A0004E010F1EB42DB52DD2
:100B6800B02D4001200842019A0008002C340134BD
:100B78002C3401342C3401346434003464340034AB
:100B88000834C82D430110084E010F1CCC2DCD2D63
:100B9800C62D0F1008004001A000200843018C005A
:100BA8008531C525853108007808F200F3017208FF
:100BB800F0007308F1000800FE0012001E00FE0B92
:100BC800E12D003444010E1086310F2685310800CE
:100BD800430111158531C5258531080043011114DC
:100BE8008531C5258531080044010E10863112264D
:100BF8008531080040013708F1003608F000080088
:100C0800FF308531AE25863108008B170B17080099
:100C18004001911408004001911008004001911012
:060C280008002C34013429
:020000040001F9
:08000000FF3FFF3FFF3FFF3F00
:0A000E008C3FFF3F9F3FFF3FFF3F85
:00000001FF
