:040000008031AC2877
:100008007E1480314E018F1E0A280B283F2842019A
:100018001908F4007408FA003F287A08F40002303E
:10002800F436890B14287408F50075084001A700F8
:1000380056287A08F40074084001A60056287A0861
:10004800F4000230F436890B26287408F500750888
:100058004001A50056287A08F4000230F436890BCE
:1000680032287408F50075084001A4000130F40036
:100078007408A30056287A080339F400F5017508B6
:10008800003A0319482856287408003A0319112819
:10009800013A03191D28033A03192328013A0319C1
:1000A8002F2856284E01121C5A285B28AA281210FD
:1000B80082319822803170037104031D64286528F9
:1000C80079288231C52280317108803AF400813064
:1000D8007402031D7128F5307002031C74287528FA
:1000E80079288231BF228031AA2882319822803132
:1000F80070087104031D8128822893288231C52243
:1001080080317108803AF4007E307402031D8E2815
:100118000C30700203189128922893287528400102
:10012800190EF400740C0139F4000130F406F40ED1
:10013800F40D19087406DF397406990082312F22EC
:100148008031013046018D0034308C007E1009006A
:100158008031AE28D0308400823085007630860029
:100168000030870004308231A72280318630840035
:10017800823085002A3086000030870009308231BD
:10018800A7228031FA01FB01A001A101A201A3016C
:10019800A401A501A601A701A801A9017E1040019B
:1001A8008131312940019601970118309800990151
:1001B8009A0131309100C1309200BF309300940110
:1001C8000730950030307E01B800F030C30067304A
:1001D800CE00D9010730E400B901C401CF01DA012A
:1001E800E501BA01C501D001DB01E601FF30BB0022
:1001F800FF30C600FF30D100FF30DC000730E700D9
:10020800FF30BC00FF30C700FF30D200FF30DD00F8
:100218000F30E80017307D01CB00103092000D3010
:10022800930010307E01A60013307D01C500143004
:100238007E01A30014307D01C60015307E01A400A4
:10024800BD01BE01BF01C801C901CA01D301D40162
:10025800D501E901EA01EB01080082314022813130
:1002680080304001B7003708B40082308131C9219D
:10027800813182310C2281314001B901B90A400132
:100288000C1C47294829432939308131F92181310A
:1002980040012303031D512952294329A301013099
:1002A80081318B2181310B304001B8002630B700F5
:1002B8005D30890B5D29B70B5D29B80B5D290032CC
:1002C8008231AD2281310B304001B8002630B700B1
:1002D8005D30890B6D29B70B6D29B80B6D2900327C
:1002E800003081318B2181310B304001B80026303C
:1002F800B7005D30890B7E29B70B7E29B80B7E29A4
:1003080000328231CB22813143298031AC2840012F
:10031800B4003408B3003308FB007B03031D9529A0
:100328009629B5292108803AB30080303302031D8D
:100338009F29333020020318A229A329AF2982312B
:10034800D72281317B0C4001031C1912031819169E
:1003580044010E14C82944010E108231DA22813179
:10036800C829A11BB829B929C5298231D7228131C9
:100378007B0C4001031C19120318191644010E14B2
:10038800C82944010E10B12908004001B6003408FC
:10039800B5003508BA00921197118231B92281311E
:1003A80040013A0882318F228131FE3082318F221A
:1003B80081314001360882318F2281318231B32266
:1003C80081318231B922813140013A0882318F224C
:1003D8008131003082318F228131213082318F2268
:1003E80081318231B322813108004001B4003408E0
:1003F800860087010103031D022A032A0B2A823182
:10040800CB22813140013408860087018101080030
:100418004E01121044018E160E168E108F138B305B
:1004280046018E000130440191008B170B174E01D5
:100438001C14080010307E01A600193042019B00F0
:100448009C019F111E111F129D171E121D169E162C
:100458004E01991608007B03031D332A342A3A2AD1
:1004680001304001A0070030A13D3F2AFF30400184
:10047800A007FF30A13D080082316D228231803112
:10048800D620823182311E2282318231502282313D
:100498008231D42282310800803043018F00083035
:1004A8009000910192019F308D0040019315131621
:1004B800430190160800662A4301901F642A652AA2
:1004C800662A652A4E010F1C6A2A6B2A602A0F10B9
:1004D8000800613051018D0070308E008F0140306E
:1004E8009100063093009001920108004001B3008A
:1004F8004E010F1E802A812A7C2A400133084201BE
:100508009A0008002C3401342C3401342C34013482
:10051800BC34023408344001B300330843018C0072
:1005280082315F22823108007B08F200F3017208F1
:10053800F0007308F100080045344E3441343A3471
:10054800253464340034FE0012001E00FE0BA82A75
:10055800003444010E108231DA228231080043014E
:10056800111582315F228231080043011114823152
:100578005F228231080044010E108231DD2282316F
:10058800080040012108F1002008F0000800AA3006
:1005980082317A22823108002C340134BC3402348E
:1005A8008B170B17080040019114080040019110A7
:0805B800080040019110080049
:020000040001F9
:08000000FF3FFF3FFF3FFF3F00
:0A000E008C3FFF3F9F3FFF3FFF3F85
:00000001FF
