:040000008031AB2878
:100008007E1480314E018F1E0A280B283F2842019A
:100018001908F4007408F8003F287808F400023042
:10002800F436890B14287408F50075084001CA00D5
:1000380056287808F40074084001C9005628780842
:10004800F4000230F436890B26287408F500750888
:100058004001C80056287808F4000230F436890BAD
:1000680032287408F50075084001C7000130F40013
:100078007408C600562878080339F400F501750895
:10008800003A0319482856287408003A0319112819
:10009800013A03191D28033A03192328013A0319C1
:1000A8002F2856284E01121C5A285B28A9281210FE
:1000B8008531BB25803170037104031D64286528D0
:1000C80079288531E12580317108803AF400BA3009
:1000D8007402031D712899307002031C7428752856
:1000E80079288531DB258031A9288531BB258031E8
:1000F80070087104031D8128822893288531E12521
:1001080080317108803AF40045307402031D8E284E
:1001180068307002031891289228932875284001A6
:10012800190EF400740C0139F4000130F406F40ED1
:10013800F40D19087406DF397406990085312B25EA
:10014800803146018D01F0308C007E10090080312D
:10015800AD288531F8258031FB0086308400853054
:10016800850037308600003087000C308531C32584
:100178008031F601F701F801F901C301C401C50195
:10018800C601C701C801C901CA01CB01CC017E1053
:1001980040018231CE2A4001B20032088331D52392
:1001A800803140012E1ED928DA28DD28CC01CC0A5E
:1001B800DE28CC01AE1DE128E228E528CB01CB0AD8
:1001C800E628CB01AE1EE928EA2810298531C92581
:1001D8008031053040013002031CF328F428FD2843
:1001E8004B08B1003108A90030088431F32480316C
:1001F800862905302F02031C022903290C294C08E3
:10020800B1003108A9002F088431DF248031862904
:1002180085319E25803186292E1F132914293929D5
:100228008531C925803185319E2580310B304001CB
:100238002F02031C2029212929294C08B100310843
:10024800A7002F088231612280310B304001300233
:10025800031C2F29302986294B08B1003108A70033
:1002680030088131F42180318629AE1F3C293D298F
:10027800802985319E25803140014C03031D452985
:1002880046295A290B302F02031C4B294C295A297D
:10029800013083318E23803134304001B100F13098
:1002A800890B5429B10B5429003270294C08031DBD
:1002B8005E295F296A290B302F02031C64296529EE
:1002C8006A29003083318E23803150298531C92530
:1002D800803185319E2580310B3040013002031C6E
:1002E8007629772986294B08B1003108A7003008FC
:1002F800813187218031862985319E25803185315C
:10030800C925803108004001AD002703031D8D2950
:100318008E29C129A901AA01B32901304001B907D1
:100328000030BA3D01303A02F53003193902031C96
:100338009E299F29A329F430B9000130BA00003062
:10034800A100A2003A08A4003908A30002308431B1
:100358004724813101304001A9070030AA3D2A080D
:10036800803AA80080302802031DBC292D082902E4
:10037800031CBF29C0299129F329AB01AC01E62947
:1003880001304001B9020030BA3B00303A02643013
:10039800031939020318D129D229D6296430B900A2
:1003A8000030BA000030A100A2003A08A4003908C1
:1003B800A300023084314724813101304001AB076A
:1003C8000030AC3D2C08803AA80080302802031D7C
:1003D800EF292D082B02031CF229F329C429080050
:1003E8004001AD002703031DFA29FB292E2AA90184
:1003F800AA01202A01304001BB070030BC3D013072
:100408003C02F53003193B02031C0B2A0C2A102A64
:10041800F430BB000130BC000030A100A2003C0851
:10042800A4003B08A3000130843147248131023005
:100438004001A9070030AA3D2A08803AA800803068
:100448002802031D292A2D082902031C2C2A2D2ADB
:10045800FE29602AAB01AC01532A01304001BB02DE
:100468000030BC3B00303C02643003193B020318E7
:100478003E2A3F2A432A6430BB000030BC000030CB
:10048800A100A2003C08A4003B08A300013084316D
:100498004724813102304001AB070030AC3D2C08C5
:1004A800803AA80080302802031D5C2A2D082B0200
:1004B800031C5F2A602A312A08004001AD00270387
:1004C800031D672A682A9B2AA901AA018D2A0130DF
:1004D8004001BD070030BE3D01303E02F530031932
:1004E8003D02031C782A792A7D2AF430BD000130A8
:1004F800BE000030A100A2003E08A4003D08A300F1
:10050800003084314724823102304001A90700308D
:10051800AA3D2A08803AA80080302802031D962A9E
:100528002D082902031C992A9A2A6B2ACD2AAB0185
:10053800AC01C02A01304001BD020030BE3B003092
:100548003E02643003193D020318AB2AAC2AB02AD4
:100558006430BD000030BE000030A100A2003E089B
:10056800A4003D08A30000308431472482310230C2
:100578004001AB070030AC3D2C08803AA800803021
:100588002802031DC92A2D082B02031CCC2ACD2AB8
:100598009E2A080085313C25823185314C258231DF
:1005A80085316B25823180304001B3003308A100CA
:1005B800823084317C2482318431CA2482314001E2
:1005C800B601B60A85319E25823115304001B40046
:1005D8004B30B300BE30890BEF2AB30BEF2AB40BB4
:1005E800EF2A000040010C1CFA2AFB2A252B3603AF
:1005F800031DFF2A002B0B2B8531E725823185311E
:10060800E72582318531E72582314001B60146036D
:10061800031D0F2B102B272BC6014908B3003308E5
:10062800AE004808B4003408AF004708B5003508E4
:10063800B0004A088031CF2082318531E7258231E8
:10064800272BB601B60A82304001B300DD30890B92
:100658002B2BB30B2B2B0032F62A8031AB28400111
:10066800960197011830980099019A01313091004C
:10067800C1309200BF3093009401073095003030AC
:100688007E01B800F030C3006730CE00D9010730D2
:10069800E400B901C401CF01DA01E501BA01C501DD
:1006A800D001DB01E601FF30BB00FF30C600FF30A0
:1006B800D100FF30DC000730E700FF30BC00FF301E
:1006C800C700FF30D200FF30DD000F30E8001730E0
:1006D8007D01CB00103092000D30930010307E0168
:1006E800A60013307D01C50014307E01A30014302C
:1006F8007D01C60015307E01A400BD01BE01BF0109
:10070800C801C901CA01D301D401D501E901EA012F
:10071800EB0108004001A1002108A0002008F90011
:100728002103031D982B992BB82B4408803AA0006D
:10073800BA302002031DA22B993043020318A52BBF
:10074800A62BB22B8531EF258331790C4001031C90
:1007580019120318191644010E14D42B44010E1053
:100768008531F2258331D42B4408803AA0004530E6
:100778002002031DC12B68304302031CC42BC52B68
:10078800D12B8531EF258331790C4001031C1912D7
:100798000318191644010E14D42B44010E10B42B5F
:1007A80008004001A9002908A700A8012708A000FF
:1007B8002808A1000A30A2000030A3008431AA242E
:1007C800833140012108B8002008B7000130380201
:1007D800F53003193702031CF22BF32BF72BF430F7
:1007E800B7000130B800003038026430031937020E
:1007F8000318FF2B002C042C6430B7000030B8001D
:100808000030A100A2003808A4003708A300033074
:1008180084314724833108004001A8002808A60035
:10082800A7012608A0002708A1000730A200003071
:10083800A3008431AA24843140012108C200200881
:10084800C10003304202203003194102031C2D2C41
:100858002E2C322C2030C1000330C200003042025E
:1008680065300319410203183A2C3B2C3F2C6430A5
:10087800C1000030C2004208A1004108A000853133
:100888000725843108004001A60010302602031C09
:100898004E2C4F2C502C7B2C8531D52584317A0851
:1008A8008531B225843140012608A5000130A535DF
:1008B800FF3E031D5B2C2535063E8531B22584316C
:1008C800400121088531B225843140012208853153
:1008D800B2258431400123088531B2258431400195
:1008E80024088531B22584318531CF25843108002B
:1008F8004001A3002108A2002208FA0092119711D2
:100908008531D52584317A088531B2258431FE3088
:100918008531B2258431400123088531B2258431DF
:100928008531CF2584318531D52584317A088531C3
:10093800B225843100308531B225843121308531AA
:10094800B22584318531CF25843108004001A401C6
:10095800A501201CB02CB12CB52C2208A407230813
:10096800A53D0130A235A30D890BB62C0130A13667
:10097800A00C890BBB2C20082104031DC42CC52CFA
:10098800AD2C2508A1002408A00008004E01121073
:1009980044018E160E168E108F138B3046018E0072
:1009A8000130440191008B170B174E011C144001B4
:1009B800C301C40108004001AA0045018E17400187
:1009C8002903031DE82CE92CEC2C97141711EE2CA5
:1009D800971017152A088431102484310800400123
:1009E800AA0045018E1740012903031DFC2CFD2C8C
:1009F800002D97141715022D971017112A08843106
:100A0800102484310800400120080339A20022087C
:100A1800A3002008FC39A2002208A40024084701EA
:100A28008D004001230847018C00080010307E012A
:100A3800A600193042019B009C019F111E111F1234
:100A48009D171E121D169E164E0199160800790351
:100A5800031D2F2D302D362D01304001C3070030E6
:100A6800C43D3B2DFF304001C307FF30C43D0800A3
:100A780085317925853183313323853185311A25AF
:100A8800853185315C2585318531EC258531080036
:100A9800803047018E000F308D0040308C000E30C2
:100AA8007E01920044011F08F33904389F000800B2
:100AB800803043018F0008309000910192019F30EF
:100AC8008D0040019315131643019016080001305C
:100AD800450190008F019101FF308D008C014E017E
:100AE8009010803045018E000800613051018D0062
:100AF80070308E008F0140309100063093009001D5
:100B0800920108002C3401342C3401342C34013483
:100B18002C34013464340034643400344001A000BF
:100B28004E010F1E982D992D942D40012008420149
:100B38009A00080000304001A000A1008531072577
:100B4800853145018E130800AB2D430110084E0175
:100B58000F1CAF2DB02DA92D0F1008004001A000CB
:100B6800200843018C008531A825853108007908C3
:100B7800F200F3017208F0007308F1000800FE00AB
:100B880012001E00FE0BC42D003444010E108531E6
:100B9800F22585310800430111158531A8258531D5
:100BA8000800430111148531A82585310800440146
:100BB8000E108531F5258531080040014408F10003
:100BC8004308F0000800FF30853192258531080080
:100BD8008B170B1708004001911408004001911071
:0A0BE80008004001911008000834D5
:020000040001F9
:08000000FF3FFF3FFF3FFF3F00
:0A000E008C3FFF3F9F3FFF3FFF3F85
:00000001FF
