:040000008031AC2877
:100008007E1480314E018F1E0A280B283F2842019A
:100018001908FA007A08F0003F287008FA00023040
:10002800FA36890B14287A08FB007B084001B400D3
:1000380056287008FA007A084001B300562870085C
:10004800FA000230FA36890B26287A08FB007B086A
:100058004001B20056287008FA000230FA36890BBF
:1000680032287A08FB007B084001B1000130FA0011
:100078007A08B000562870080339FA00FB017B089B
:10008800003A0319482856287A08003A0319112813
:10009800013A03191D28033A03192328013A0319C1
:1000A8002F2856284E01121C5A285B28AA281210FD
:1000B80082319222803176037704031D64286528F3
:1000C80079288231B82280317708803AFA00813065
:1000D8007A02031D7128F5307602031C74287528EE
:1000E80079288231B2228031AA2882319222803145
:1000F80076087704031D8128822893288231B82244
:1001080080317708803AFA007E307A02031D8E2803
:100118000C307602031891289228932875284001FC
:10012800190EFA007A0C0139FA000130FA06FA0EB3
:10013800FA0D19087A06DF397A06990082312522E4
:100148008031013046018D0034308C007E1009006A
:100158008031AE28633084008230850020308600EC
:10016800003087000D3082319A228031F001F10190
:10017800F201F301F401F501AD01AE01AF01B001E7
:10018800B101B201B301B4017E10400181312729C8
:100198004001960197011830980099019A01313071
:1001A8009100C1309200BF30930094010730950050
:1001B80030307E01B800F030C3006730CE00D9017E
:1001C8000730E400B901C401CF01DA01E501BA0141
:1001D800C501D001DB01E601FF30BB00FF30C600DE
:1001E800FF30D100FF30DC000730E700FF30BC00F3
:1001F800FF30C700FF30D200FF30DD000F30E800CD
:1002080017307D01CB00103092000D309300103074
:100218007E01A60013307D01C50014307E01A300C5
:1002280014307D01C60015307E01A400BD01BE0159
:10023800BF01C801C901CA01D301D401D501E9012F
:10024800EA01EB0108008231362281318030400119
:10025800B9003908B60082308131BF21813182313D
:10026800022281314001BB01BB0A40010C1C3D291F
:100278003E2939293B308131EF218131400130035A
:10028800031D472948293929B001013081318121CD
:1002980081310B304001BA002630B9005D30890B3E
:1002A8005329B90B5329BA0B532900328231A022A2
:1002B80081310B304001BA002630B9005D30890B1E
:1002C8006329B90B6329BA0B6329003200308131E5
:1002D800812181310B304001BA002630B9005D30F0
:1002E800890B7429B90B7429BA0B7429003282312D
:1002F800BE22813139298031AC284001B600360848
:10030800B5003508F5007503031D8B298C29AB2929
:100318002E08803AB50080303502031D9529333008
:100328002D02031898299929A5298231C6228131DD
:10033800750C4001031C19120318191644010E14F8
:10034800BE2944010E108231C9228131BE29AE1B5B
:10035800AE29AF29BB298231C6228131750C4001F3
:10036800031C19120318191644010E14BE2944015E
:100378000E10A72908004001B8003608B700370852
:10038800BC00921197118231AC22813140013C08A6
:10039800823189228131FE308231892281314001C6
:1003A80038088231892281318231A6228131823115
:1003B800AC22813140013C088231892281310030F0
:1003C8008231892281312130823189228131823101
:1003D800A622813108004001B60036088600870150
:1003E8000103031DF829F929012A8231BE2281312E
:1003F8004001360886008701810108004E0112106D
:1004080044018E160E168E108F138B3046018E0007
:100418000130440191008B170B174E011C14080082
:1004280010307E01A600193042019B009C019F11EB
:100438001E111F129D171E121D169E164E0199168B
:1004480008007503031D292A2A2A302A0130400191
:10045800AD070030AE3D352AFF304001AD07FF3013
:10046800AE3D08008231702282318031CC20823149
:100478008231142282318231462282318231C32272
:1004880082310800803043018F00083090009101CC
:1004980092019F308D004001931513164301901669
:1004A80008005C2A4301901F5A2A5B2A5C2A5B2AAF
:1004B8004E010F1C602A612A562A0F1008002C349E
:1004C80001342C3401342C3401342C340134643498
:1004D8000034643400340834613051018D007030C8
:1004E8008E008F01403091000630930090019201F8
:1004F80008004001B5004E010F1E832A842A7F2A76
:100508004001350842019A0008004001B50035084D
:1005180043018C0082315522823108007508F800A9
:10052800F9017808F6007908F7000800FE001200C3
:100538001E00FE0B9B2A003444010E108231C92292
:100548008231080043011115823155228231080099
:1005580043011114823155228231080044010E10E2
:100568008231CC228231080040012E08F7002D0884
:10057800F6000800AA3082317D22823108008B17EC
:100588000B17080040019114080040019110080061
:0605980040019110080073
:020000040001F9
:08000000FF3FFF3FFF3FFF3F00
:0A000E008C3FFF3F9F3FFF3FFF3F85
:00000001FF
